{
  "_format": "hh-sol-artifact-1",
  "contractName": "ERC721",
  "sourceName": "contracts/ERC721.sol",
  "abi": [
    {
      "inputs": [],
      "stateMutability": "nonpayable",
      "type": "constructor"
    },
    {
      "anonymous": false,
      "inputs": [
        {
          "indexed": true,
          "internalType": "address",
          "name": "owner",
          "type": "address"
        },
        {
          "indexed": true,
          "internalType": "address",
          "name": "approved",
          "type": "address"
        },
        {
          "indexed": true,
          "internalType": "uint256",
          "name": "tokenId",
          "type": "uint256"
        }
      ],
      "name": "Approval",
      "type": "event"
    },
    {
      "anonymous": false,
      "inputs": [
        {
          "indexed": true,
          "internalType": "address",
          "name": "owner",
          "type": "address"
        },
        {
          "indexed": true,
          "internalType": "address",
          "name": "operator",
          "type": "address"
        },
        {
          "indexed": false,
          "internalType": "bool",
          "name": "approved",
          "type": "bool"
        }
      ],
      "name": "ApprovalForAll",
      "type": "event"
    },
    {
      "anonymous": false,
      "inputs": [
        {
          "indexed": false,
          "internalType": "uint8",
          "name": "version",
          "type": "uint8"
        }
      ],
      "name": "Initialized",
      "type": "event"
    },
    {
      "anonymous": false,
      "inputs": [
        {
          "indexed": true,
          "internalType": "address",
          "name": "previousOwner",
          "type": "address"
        },
        {
          "indexed": true,
          "internalType": "address",
          "name": "newOwner",
          "type": "address"
        }
      ],
      "name": "OwnershipTransferred",
      "type": "event"
    },
    {
      "anonymous": false,
      "inputs": [
        {
          "indexed": false,
          "internalType": "address",
          "name": "account",
          "type": "address"
        }
      ],
      "name": "Paused",
      "type": "event"
    },
    {
      "anonymous": false,
      "inputs": [
        {
          "indexed": true,
          "internalType": "address",
          "name": "from",
          "type": "address"
        },
        {
          "indexed": true,
          "internalType": "address",
          "name": "to",
          "type": "address"
        },
        {
          "indexed": true,
          "internalType": "uint256",
          "name": "tokenId",
          "type": "uint256"
        }
      ],
      "name": "Transfer",
      "type": "event"
    },
    {
      "anonymous": false,
      "inputs": [
        {
          "indexed": false,
          "internalType": "address",
          "name": "account",
          "type": "address"
        }
      ],
      "name": "Unpaused",
      "type": "event"
    },
    {
      "inputs": [
        {
          "internalType": "address",
          "name": "to",
          "type": "address"
        },
        {
          "internalType": "uint256",
          "name": "tokenId",
          "type": "uint256"
        }
      ],
      "name": "approve",
      "outputs": [],
      "stateMutability": "nonpayable",
      "type": "function"
    },
    {
      "inputs": [
        {
          "internalType": "address",
          "name": "owner",
          "type": "address"
        }
      ],
      "name": "balanceOf",
      "outputs": [
        {
          "internalType": "uint256",
          "name": "",
          "type": "uint256"
        }
      ],
      "stateMutability": "view",
      "type": "function"
    },
    {
      "inputs": [
        {
          "internalType": "uint256",
          "name": "tokenId",
          "type": "uint256"
        }
      ],
      "name": "burn",
      "outputs": [],
      "stateMutability": "nonpayable",
      "type": "function"
    },
    {
      "inputs": [
        {
          "internalType": "uint256",
          "name": "tokenId",
          "type": "uint256"
        }
      ],
      "name": "getApproved",
      "outputs": [
        {
          "internalType": "address",
          "name": "",
          "type": "address"
        }
      ],
      "stateMutability": "view",
      "type": "function"
    },
    {
      "inputs": [],
      "name": "initialize",
      "outputs": [],
      "stateMutability": "nonpayable",
      "type": "function"
    },
    {
      "inputs": [
        {
          "internalType": "address",
          "name": "owner",
          "type": "address"
        },
        {
          "internalType": "address",
          "name": "operator",
          "type": "address"
        }
      ],
      "name": "isApprovedForAll",
      "outputs": [
        {
          "internalType": "bool",
          "name": "",
          "type": "bool"
        }
      ],
      "stateMutability": "view",
      "type": "function"
    },
    {
      "inputs": [],
      "name": "name",
      "outputs": [
        {
          "internalType": "string",
          "name": "",
          "type": "string"
        }
      ],
      "stateMutability": "view",
      "type": "function"
    },
    {
      "inputs": [],
      "name": "owner",
      "outputs": [
        {
          "internalType": "address",
          "name": "",
          "type": "address"
        }
      ],
      "stateMutability": "view",
      "type": "function"
    },
    {
      "inputs": [
        {
          "internalType": "uint256",
          "name": "tokenId",
          "type": "uint256"
        }
      ],
      "name": "ownerOf",
      "outputs": [
        {
          "internalType": "address",
          "name": "",
          "type": "address"
        }
      ],
      "stateMutability": "view",
      "type": "function"
    },
    {
      "inputs": [],
      "name": "pause",
      "outputs": [],
      "stateMutability": "nonpayable",
      "type": "function"
    },
    {
      "inputs": [],
      "name": "paused",
      "outputs": [
        {
          "internalType": "bool",
          "name": "",
          "type": "bool"
        }
      ],
      "stateMutability": "view",
      "type": "function"
    },
    {
      "inputs": [],
      "name": "renounceOwnership",
      "outputs": [],
      "stateMutability": "nonpayable",
      "type": "function"
    },
    {
      "inputs": [
        {
          "internalType": "address",
          "name": "to",
          "type": "address"
        }
      ],
      "name": "safeMint",
      "outputs": [],
      "stateMutability": "nonpayable",
      "type": "function"
    },
    {
      "inputs": [
        {
          "internalType": "address",
          "name": "from",
          "type": "address"
        },
        {
          "internalType": "address",
          "name": "to",
          "type": "address"
        },
        {
          "internalType": "uint256",
          "name": "tokenId",
          "type": "uint256"
        }
      ],
      "name": "safeTransferFrom",
      "outputs": [],
      "stateMutability": "nonpayable",
      "type": "function"
    },
    {
      "inputs": [
        {
          "internalType": "address",
          "name": "from",
          "type": "address"
        },
        {
          "internalType": "address",
          "name": "to",
          "type": "address"
        },
        {
          "internalType": "uint256",
          "name": "tokenId",
          "type": "uint256"
        },
        {
          "internalType": "bytes",
          "name": "data",
          "type": "bytes"
        }
      ],
      "name": "safeTransferFrom",
      "outputs": [],
      "stateMutability": "nonpayable",
      "type": "function"
    },
    {
      "inputs": [
        {
          "internalType": "address",
          "name": "operator",
          "type": "address"
        },
        {
          "internalType": "bool",
          "name": "approved",
          "type": "bool"
        }
      ],
      "name": "setApprovalForAll",
      "outputs": [],
      "stateMutability": "nonpayable",
      "type": "function"
    },
    {
      "inputs": [
        {
          "internalType": "bytes4",
          "name": "interfaceId",
          "type": "bytes4"
        }
      ],
      "name": "supportsInterface",
      "outputs": [
        {
          "internalType": "bool",
          "name": "",
          "type": "bool"
        }
      ],
      "stateMutability": "view",
      "type": "function"
    },
    {
      "inputs": [],
      "name": "symbol",
      "outputs": [
        {
          "internalType": "string",
          "name": "",
          "type": "string"
        }
      ],
      "stateMutability": "view",
      "type": "function"
    },
    {
      "inputs": [
        {
          "internalType": "uint256",
          "name": "index",
          "type": "uint256"
        }
      ],
      "name": "tokenByIndex",
      "outputs": [
        {
          "internalType": "uint256",
          "name": "",
          "type": "uint256"
        }
      ],
      "stateMutability": "view",
      "type": "function"
    },
    {
      "inputs": [
        {
          "internalType": "address",
          "name": "owner",
          "type": "address"
        },
        {
          "internalType": "uint256",
          "name": "index",
          "type": "uint256"
        }
      ],
      "name": "tokenOfOwnerByIndex",
      "outputs": [
        {
          "internalType": "uint256",
          "name": "",
          "type": "uint256"
        }
      ],
      "stateMutability": "view",
      "type": "function"
    },
    {
      "inputs": [
        {
          "internalType": "uint256",
          "name": "tokenId",
          "type": "uint256"
        }
      ],
      "name": "tokenURI",
      "outputs": [
        {
          "internalType": "string",
          "name": "",
          "type": "string"
        }
      ],
      "stateMutability": "view",
      "type": "function"
    },
    {
      "inputs": [],
      "name": "totalSupply",
      "outputs": [
        {
          "internalType": "uint256",
          "name": "",
          "type": "uint256"
        }
      ],
      "stateMutability": "view",
      "type": "function"
    },
    {
      "inputs": [
        {
          "internalType": "address",
          "name": "from",
          "type": "address"
        },
        {
          "internalType": "address",
          "name": "to",
          "type": "address"
        },
        {
          "internalType": "uint256",
          "name": "tokenId",
          "type": "uint256"
        }
      ],
      "name": "transferFrom",
      "outputs": [],
      "stateMutability": "nonpayable",
      "type": "function"
    },
    {
      "inputs": [
        {
          "internalType": "address",
          "name": "newOwner",
          "type": "address"
        }
      ],
      "name": "transferOwnership",
      "outputs": [],
      "stateMutability": "nonpayable",
      "type": "function"
    },
    {
      "inputs": [],
      "name": "unpause",
      "outputs": [],
      "stateMutability": "nonpayable",
      "type": "function"
    }
  ],
  "bytecode": "0x608060405234801561001057600080fd5b5061001961001e565b6100de565b600054610100900460ff161561008a5760405162461bcd60e51b815260206004820152602760248201527f496e697469616c697a61626c653a20636f6e747261637420697320696e697469604482015266616c697a696e6760c81b606482015260840160405180910390fd5b60005460ff90811610156100dc576000805460ff191660ff9081179091556040519081527f7f26b83ff96e1f2b6a682f133852f6798a09c465da95921460cefb38474024989060200160405180910390a15b565b611f1e806100ed6000396000f3fe608060405234801561001057600080fd5b50600436106101735760003560e01c80635c975abb116100de5780638da5cb5b11610097578063b88d4fde11610071578063b88d4fde146102f6578063c87b56dd14610309578063e985e9c51461031c578063f2fde38b1461035857600080fd5b80638da5cb5b146102ca57806395d89b41146102db578063a22cb465146102e357600080fd5b80635c975abb146102815780636352211e1461028c57806370a082311461029f578063715018a6146102b25780638129fc1c146102ba5780638456cb59146102c257600080fd5b80632f745c59116101305780632f745c591461021a5780633f4ba83a1461022d57806340d097c31461023557806342842e0e1461024857806342966c681461025b5780634f6ccce71461026e57600080fd5b806301ffc9a71461017857806306fdde03146101a0578063081812fc146101b5578063095ea7b3146101e057806318160ddd146101f557806323b872dd14610207575b600080fd5b61018b6101863660046119d0565b61036b565b60405190151581526020015b60405180910390f35b6101a861037c565b6040516101979190611a45565b6101c86101c3366004611a58565b61040e565b6040516001600160a01b039091168152602001610197565b6101f36101ee366004611a8d565b610435565b005b6099545b604051908152602001610197565b6101f3610215366004611ab7565b610550565b6101f9610228366004611a8d565b610582565b6101f3610618565b6101f3610243366004611af3565b61062a565b6101f3610256366004611ab7565b61065d565b6101f3610269366004611a58565b610678565b6101f961027c366004611a58565b6106a9565b60c95460ff1661018b565b6101c861029a366004611a58565b61073c565b6101f96102ad366004611af3565b61079c565b6101f3610822565b6101f3610834565b6101f36109a1565b60fb546001600160a01b03166101c8565b6101a86109b1565b6101f36102f1366004611b0e565b6109c0565b6101f3610304366004611b60565b6109cb565b6101a8610317366004611a58565b610a03565b61018b61032a366004611c3c565b6001600160a01b039182166000908152606a6020908152604080832093909416825291909152205460ff1690565b6101f3610366366004611af3565b610a77565b600061037682610aed565b92915050565b60606065805461038b90611c6f565b80601f01602080910402602001604051908101604052809291908181526020018280546103b790611c6f565b80156104045780601f106103d957610100808354040283529160200191610404565b820191906000526020600020905b8154815290600101906020018083116103e757829003601f168201915b5050505050905090565b600061041982610b12565b506000908152606960205260409020546001600160a01b031690565b60006104408261073c565b9050806001600160a01b0316836001600160a01b031614156104b35760405162461bcd60e51b815260206004820152602160248201527f4552433732313a20617070726f76616c20746f2063757272656e74206f776e656044820152603960f91b60648201526084015b60405180910390fd5b336001600160a01b03821614806104cf57506104cf813361032a565b6105415760405162461bcd60e51b815260206004820152603e60248201527f4552433732313a20617070726f76652063616c6c6572206973206e6f7420746f60448201527f6b656e206f776e6572206e6f7220617070726f76656420666f7220616c6c000060648201526084016104aa565b61054b8383610b71565b505050565b61055b335b82610bdf565b6105775760405162461bcd60e51b81526004016104aa90611caa565b61054b838383610c5e565b600061058d8361079c565b82106105ef5760405162461bcd60e51b815260206004820152602b60248201527f455243373231456e756d657261626c653a206f776e657220696e646578206f7560448201526a74206f6620626f756e647360a81b60648201526084016104aa565b506001600160a01b03919091166000908152609760209081526040808320938352929052205490565b610620610e05565b610628610e5f565b565b610632610e05565b600061063e61015f5490565b905061064f61015f80546001019055565b6106598282610eb1565b5050565b61054b838383604051806020016040528060008152506109cb565b61068133610555565b61069d5760405162461bcd60e51b81526004016104aa90611caa565b6106a681610ecb565b50565b60006106b460995490565b82106107175760405162461bcd60e51b815260206004820152602c60248201527f455243373231456e756d657261626c653a20676c6f62616c20696e646578206f60448201526b7574206f6620626f756e647360a01b60648201526084016104aa565b6099828154811061072a5761072a611cf8565b90600052602060002001549050919050565b6000818152606760205260408120546001600160a01b0316806103765760405162461bcd60e51b8152602060048201526018602482015277115490cdcc8c4e881a5b9d985b1a59081d1bdad95b88125160421b60448201526064016104aa565b60006001600160a01b0382166108065760405162461bcd60e51b815260206004820152602960248201527f4552433732313a2061646472657373207a65726f206973206e6f7420612076616044820152683634b21037bbb732b960b91b60648201526084016104aa565b506001600160a01b031660009081526068602052604090205490565b61082a610e05565b6106286000610f72565b600054610100900460ff16158080156108545750600054600160ff909116105b8061086e5750303b15801561086e575060005460ff166001145b6108d15760405162461bcd60e51b815260206004820152602e60248201527f496e697469616c697a61626c653a20636f6e747261637420697320616c72656160448201526d191e481a5b9a5d1a585b1a5e995960921b60648201526084016104aa565b6000805460ff1916600117905580156108f4576000805461ff0019166101001790555b6109396040518060400160405280600881526020016743616d656c6c696160c01b8152506040518060400160405280600381526020016210d35360ea1b815250610fc4565b610941610ff5565b61094961101c565b61095161104b565b610959610ff5565b80156106a6576000805461ff0019169055604051600181527f7f26b83ff96e1f2b6a682f133852f6798a09c465da95921460cefb38474024989060200160405180910390a150565b6109a9610e05565b61062861107a565b60606066805461038b90611c6f565b6106593383836110b7565b6109d53383610bdf565b6109f15760405162461bcd60e51b81526004016104aa90611caa565b6109fd84848484611186565b50505050565b6060610a0e82610b12565b6000610a2560408051602081019091526000815290565b90506000815111610a455760405180602001604052806000815250610a70565b80610a4f846111b9565b604051602001610a60929190611d0e565b6040516020818303038152906040525b9392505050565b610a7f610e05565b6001600160a01b038116610ae45760405162461bcd60e51b815260206004820152602660248201527f4f776e61626c653a206e6577206f776e657220697320746865207a65726f206160448201526564647265737360d01b60648201526084016104aa565b6106a681610f72565b60006001600160e01b0319821663780e9d6360e01b14806103765750610376826112b7565b6000818152606760205260409020546001600160a01b03166106a65760405162461bcd60e51b8152602060048201526018602482015277115490cdcc8c4e881a5b9d985b1a59081d1bdad95b88125160421b60448201526064016104aa565b600081815260696020526040902080546001600160a01b0319166001600160a01b0384169081179091558190610ba68261073c565b6001600160a01b03167f8c5be1e5ebec7d5bd14f71427d1e84f3dd0314c0f7b2291e5b200ac8c7c3b92560405160405180910390a45050565b600080610beb8361073c565b9050806001600160a01b0316846001600160a01b03161480610c3257506001600160a01b038082166000908152606a602090815260408083209388168352929052205460ff165b80610c565750836001600160a01b0316610c4b8461040e565b6001600160a01b0316145b949350505050565b826001600160a01b0316610c718261073c565b6001600160a01b031614610cd55760405162461bcd60e51b815260206004820152602560248201527f4552433732313a207472616e736665722066726f6d20696e636f72726563742060448201526437bbb732b960d91b60648201526084016104aa565b6001600160a01b038216610d375760405162461bcd60e51b8152602060048201526024808201527f4552433732313a207472616e7366657220746f20746865207a65726f206164646044820152637265737360e01b60648201526084016104aa565b610d42838383611307565b610d4d600082610b71565b6001600160a01b0383166000908152606860205260408120805460019290610d76908490611d53565b90915550506001600160a01b0382166000908152606860205260408120805460019290610da4908490611d6a565b909155505060008181526067602052604080822080546001600160a01b0319166001600160a01b0386811691821790925591518493918716917fddf252ad1be2c89b69c2b068fc378daa952ba7f163c4a11628f55a4df523b3ef91a4505050565b60fb546001600160a01b031633146106285760405162461bcd60e51b815260206004820181905260248201527f4f776e61626c653a2063616c6c6572206973206e6f7420746865206f776e657260448201526064016104aa565b610e6761131a565b60c9805460ff191690557f5db9ee0a495bf2e6ff9c91a7834c1ba4fdd244a5e8aa4e537bd38aeae4b073aa335b6040516001600160a01b03909116815260200160405180910390a1565b610659828260405180602001604052806000815250611363565b6000610ed68261073c565b9050610ee481600084611307565b610eef600083610b71565b6001600160a01b0381166000908152606860205260408120805460019290610f18908490611d53565b909155505060008281526067602052604080822080546001600160a01b0319169055518391906001600160a01b038416907fddf252ad1be2c89b69c2b068fc378daa952ba7f163c4a11628f55a4df523b3ef908390a45050565b60fb80546001600160a01b038381166001600160a01b0319831681179093556040519116919082907f8be0079c531659141344cd1fd0a4f28419497f9722a3daafe3b4186f6b6457e090600090a35050565b600054610100900460ff16610feb5760405162461bcd60e51b81526004016104aa90611d82565b6106598282611396565b600054610100900460ff166106285760405162461bcd60e51b81526004016104aa90611d82565b600054610100900460ff166110435760405162461bcd60e51b81526004016104aa90611d82565b6106286113e4565b600054610100900460ff166110725760405162461bcd60e51b81526004016104aa90611d82565b610628611417565b611082611447565b60c9805460ff191660011790557f62e78cea01bee320cd4e420270b5ea74000d11b0c9f74754ebdbfc544b05a258610e943390565b816001600160a01b0316836001600160a01b031614156111195760405162461bcd60e51b815260206004820152601960248201527f4552433732313a20617070726f766520746f2063616c6c65720000000000000060448201526064016104aa565b6001600160a01b038381166000818152606a6020908152604080832094871680845294825291829020805460ff191686151590811790915591519182527f17307eab39ab6107e8899845ad3d59bd9653f200f220920489ca2b5937696c31910160405180910390a3505050565b611191848484610c5e565b61119d8484848461148d565b6109fd5760405162461bcd60e51b81526004016104aa90611dcd565b6060816111dd5750506040805180820190915260018152600360fc1b602082015290565b8160005b811561120757806111f181611e1f565b91506112009050600a83611e50565b91506111e1565b60008167ffffffffffffffff81111561122257611222611b4a565b6040519080825280601f01601f19166020018201604052801561124c576020820181803683370190505b5090505b8415610c5657611261600183611d53565b915061126e600a86611e64565b611279906030611d6a565b60f81b81838151811061128e5761128e611cf8565b60200101906001600160f81b031916908160001a9053506112b0600a86611e50565b9450611250565b60006001600160e01b031982166380ac58cd60e01b14806112e857506001600160e01b03198216635b5e139f60e01b145b8061037657506301ffc9a760e01b6001600160e01b0319831614610376565b61130f611447565b61054b83838361158b565b60c95460ff166106285760405162461bcd60e51b815260206004820152601460248201527314185d5cd8589b194e881b9bdd081c185d5cd95960621b60448201526064016104aa565b61136d8383611643565b61137a600084848461148d565b61054b5760405162461bcd60e51b81526004016104aa90611dcd565b600054610100900460ff166113bd5760405162461bcd60e51b81526004016104aa90611d82565b81516113d0906065906020850190611921565b50805161054b906066906020840190611921565b600054610100900460ff1661140b5760405162461bcd60e51b81526004016104aa90611d82565b60c9805460ff19169055565b600054610100900460ff1661143e5760405162461bcd60e51b81526004016104aa90611d82565b61062833610f72565b60c95460ff16156106285760405162461bcd60e51b815260206004820152601060248201526f14185d5cd8589b194e881c185d5cd95960821b60448201526064016104aa565b60006001600160a01b0384163b1561158057604051630a85bd0160e11b81526001600160a01b0385169063150b7a02906114d1903390899088908890600401611e78565b6020604051808303816000875af192505050801561150c575060408051601f3d908101601f1916820190925261150991810190611eb5565b60015b611566573d80801561153a576040519150601f19603f3d011682016040523d82523d6000602084013e61153f565b606091505b50805161155e5760405162461bcd60e51b81526004016104aa90611dcd565b805181602001fd5b6001600160e01b031916630a85bd0160e11b149050610c56565b506001949350505050565b6001600160a01b0383166115e6576115e181609980546000838152609a60205260408120829055600182018355919091527f72a152ddfb8e864297c917af52ea6c1c68aead0fee1a62673fcc7e0c94979d000155565b611609565b816001600160a01b0316836001600160a01b031614611609576116098382611791565b6001600160a01b0382166116205761054b8161182e565b826001600160a01b0316826001600160a01b03161461054b5761054b82826118dd565b6001600160a01b0382166116995760405162461bcd60e51b815260206004820181905260248201527f4552433732313a206d696e7420746f20746865207a65726f206164647265737360448201526064016104aa565b6000818152606760205260409020546001600160a01b0316156116fe5760405162461bcd60e51b815260206004820152601c60248201527f4552433732313a20746f6b656e20616c7265616479206d696e7465640000000060448201526064016104aa565b61170a60008383611307565b6001600160a01b0382166000908152606860205260408120805460019290611733908490611d6a565b909155505060008181526067602052604080822080546001600160a01b0319166001600160a01b03861690811790915590518392907fddf252ad1be2c89b69c2b068fc378daa952ba7f163c4a11628f55a4df523b3ef908290a45050565b6000600161179e8461079c565b6117a89190611d53565b6000838152609860205260409020549091508082146117fb576001600160a01b03841660009081526097602090815260408083208584528252808320548484528184208190558352609890915290208190555b5060009182526098602090815260408084208490556001600160a01b039094168352609781528383209183525290812055565b60995460009061184090600190611d53565b6000838152609a60205260408120546099805493945090928490811061186857611868611cf8565b90600052602060002001549050806099838154811061188957611889611cf8565b6000918252602080832090910192909255828152609a909152604080822084905585825281205560998054806118c1576118c1611ed2565b6001900381819060005260206000200160009055905550505050565b60006118e88361079c565b6001600160a01b039093166000908152609760209081526040808320868452825280832085905593825260989052919091209190915550565b82805461192d90611c6f565b90600052602060002090601f01602090048101928261194f5760008555611995565b82601f1061196857805160ff1916838001178555611995565b82800160010185558215611995579182015b8281111561199557825182559160200191906001019061197a565b506119a19291506119a5565b5090565b5b808211156119a157600081556001016119a6565b6001600160e01b0319811681146106a657600080fd5b6000602082840312156119e257600080fd5b8135610a70816119ba565b60005b83811015611a085781810151838201526020016119f0565b838111156109fd5750506000910152565b60008151808452611a318160208601602086016119ed565b601f01601f19169290920160200192915050565b602081526000610a706020830184611a19565b600060208284031215611a6a57600080fd5b5035919050565b80356001600160a01b0381168114611a8857600080fd5b919050565b60008060408385031215611aa057600080fd5b611aa983611a71565b946020939093013593505050565b600080600060608486031215611acc57600080fd5b611ad584611a71565b9250611ae360208501611a71565b9150604084013590509250925092565b600060208284031215611b0557600080fd5b610a7082611a71565b60008060408385031215611b2157600080fd5b611b2a83611a71565b915060208301358015158114611b3f57600080fd5b809150509250929050565b634e487b7160e01b600052604160045260246000fd5b60008060008060808587031215611b7657600080fd5b611b7f85611a71565b9350611b8d60208601611a71565b925060408501359150606085013567ffffffffffffffff80821115611bb157600080fd5b818701915087601f830112611bc557600080fd5b813581811115611bd757611bd7611b4a565b604051601f8201601f19908116603f01168101908382118183101715611bff57611bff611b4a565b816040528281528a6020848701011115611c1857600080fd5b82602086016020830137600060208483010152809550505050505092959194509250565b60008060408385031215611c4f57600080fd5b611c5883611a71565b9150611c6660208401611a71565b90509250929050565b600181811c90821680611c8357607f821691505b60208210811415611ca457634e487b7160e01b600052602260045260246000fd5b50919050565b6020808252602e908201527f4552433732313a2063616c6c6572206973206e6f7420746f6b656e206f776e6560408201526d1c881b9bdc88185c1c1c9bdd995960921b606082015260800190565b634e487b7160e01b600052603260045260246000fd5b60008351611d208184602088016119ed565b835190830190611d348183602088016119ed565b01949350505050565b634e487b7160e01b600052601160045260246000fd5b600082821015611d6557611d65611d3d565b500390565b60008219821115611d7d57611d7d611d3d565b500190565b6020808252602b908201527f496e697469616c697a61626c653a20636f6e7472616374206973206e6f74206960408201526a6e697469616c697a696e6760a81b606082015260800190565b60208082526032908201527f4552433732313a207472616e7366657220746f206e6f6e20455243373231526560408201527131b2b4bb32b91034b6b83632b6b2b73a32b960711b606082015260800190565b6000600019821415611e3357611e33611d3d565b5060010190565b634e487b7160e01b600052601260045260246000fd5b600082611e5f57611e5f611e3a565b500490565b600082611e7357611e73611e3a565b500690565b6001600160a01b0385811682528416602082015260408101839052608060608201819052600090611eab90830184611a19565b9695505050505050565b600060208284031215611ec757600080fd5b8151610a70816119ba565b634e487b7160e01b600052603160045260246000fdfea26469706673582212206901ac9b13ce6412e37bcdb5045379ee99e8e9f26cd6af62ca66d87bd0b516da64736f6c634300080b0033",
  "linkReferences": {},
  "deployedLinkReferences": {}
}