{
  "_format": "hh-sol-artifact-1",
  "contractName": "Maintainer",
  "sourceName": "contracts/Maintainer.sol",
  "abi": [
    {
      "anonymous": false,
      "inputs": [
        {
          "indexed": false,
          "internalType": "uint8",
          "name": "version",
          "type": "uint8"
        }
      ],
      "name": "Initialized",
      "type": "event"
    },
    {
      "anonymous": false,
      "inputs": [
        {
          "indexed": true,
          "internalType": "address",
          "name": "previousOwner",
          "type": "address"
        },
        {
          "indexed": true,
          "internalType": "address",
          "name": "newOwner",
          "type": "address"
        }
      ],
      "name": "OwnershipTransferred",
      "type": "event"
    },
    {
      "anonymous": false,
      "inputs": [
        {
          "indexed": false,
          "internalType": "address[]",
          "name": "_validators",
          "type": "address[]"
        },
        {
          "indexed": false,
          "internalType": "uint8",
          "name": "_multisigThreshold",
          "type": "uint8"
        }
      ],
      "name": "validatorChanged",
      "type": "event"
    },
    {
      "inputs": [],
      "name": "CHANGE_VALIDATORS_TYPEHASH",
      "outputs": [
        {
          "internalType": "bytes32",
          "name": "",
          "type": "bytes32"
        }
      ],
      "stateMutability": "view",
      "type": "function"
    },
    {
      "inputs": [],
      "name": "DOMAIN_SEPARATOR",
      "outputs": [
        {
          "internalType": "bytes32",
          "name": "",
          "type": "bytes32"
        }
      ],
      "stateMutability": "view",
      "type": "function"
    },
    {
      "inputs": [],
      "name": "MIN_VALIDATOR_SIZE",
      "outputs": [
        {
          "internalType": "uint256",
          "name": "",
          "type": "uint256"
        }
      ],
      "stateMutability": "view",
      "type": "function"
    },
    {
      "inputs": [],
      "name": "NAME_712",
      "outputs": [
        {
          "internalType": "string",
          "name": "",
          "type": "string"
        }
      ],
      "stateMutability": "view",
      "type": "function"
    },
    {
      "inputs": [],
      "name": "SIGNATURE_SIZE",
      "outputs": [
        {
          "internalType": "uint256",
          "name": "",
          "type": "uint256"
        }
      ],
      "stateMutability": "view",
      "type": "function"
    },
    {
      "inputs": [],
      "name": "VALIDATORS_SIZE_LIMIT",
      "outputs": [
        {
          "internalType": "uint256",
          "name": "",
          "type": "uint256"
        }
      ],
      "stateMutability": "view",
      "type": "function"
    },
    {
      "inputs": [
        {
          "internalType": "address[]",
          "name": "validators",
          "type": "address[]"
        },
        {
          "internalType": "uint8",
          "name": "multisigThreshold",
          "type": "uint8"
        },
        {
          "internalType": "uint256",
          "name": "nonce",
          "type": "uint256"
        },
        {
          "internalType": "bytes",
          "name": "signatures",
          "type": "bytes"
        }
      ],
      "name": "changeValidators",
      "outputs": [],
      "stateMutability": "nonpayable",
      "type": "function"
    },
    {
      "inputs": [
        {
          "internalType": "address[]",
          "name": "validators",
          "type": "address[]"
        },
        {
          "internalType": "uint8",
          "name": "multisigThreshold",
          "type": "uint8"
        }
      ],
      "name": "initialize",
      "outputs": [],
      "stateMutability": "nonpayable",
      "type": "function"
    },
    {
      "inputs": [],
      "name": "latestChangeValidatorsNonce_",
      "outputs": [
        {
          "internalType": "uint256",
          "name": "",
          "type": "uint256"
        }
      ],
      "stateMutability": "view",
      "type": "function"
    },
    {
      "inputs": [],
      "name": "listValidators",
      "outputs": [
        {
          "internalType": "address[]",
          "name": "",
          "type": "address[]"
        }
      ],
      "stateMutability": "view",
      "type": "function"
    },
    {
      "inputs": [],
      "name": "multisigThreshold_",
      "outputs": [
        {
          "internalType": "uint8",
          "name": "",
          "type": "uint8"
        }
      ],
      "stateMutability": "view",
      "type": "function"
    },
    {
      "inputs": [],
      "name": "owner",
      "outputs": [
        {
          "internalType": "address",
          "name": "",
          "type": "address"
        }
      ],
      "stateMutability": "view",
      "type": "function"
    },
    {
      "inputs": [],
      "name": "renounceOwnership",
      "outputs": [],
      "stateMutability": "nonpayable",
      "type": "function"
    },
    {
      "inputs": [
        {
          "internalType": "address",
          "name": "newOwner",
          "type": "address"
        }
      ],
      "name": "transferOwnership",
      "outputs": [],
      "stateMutability": "nonpayable",
      "type": "function"
    },
    {
      "inputs": [
        {
          "internalType": "bytes32",
          "name": "msgHash",
          "type": "bytes32"
        },
        {
          "internalType": "bytes",
          "name": "signatures",
          "type": "bytes"
        }
      ],
      "name": "validatorsApprove",
      "outputs": [
        {
          "internalType": "uint256[]",
          "name": "",
          "type": "uint256[]"
        }
      ],
      "stateMutability": "view",
      "type": "function"
    },
    {
      "inputs": [
        {
          "internalType": "uint256",
          "name": "",
          "type": "uint256"
        }
      ],
      "name": "validators_",
      "outputs": [
        {
          "internalType": "address",
          "name": "",
          "type": "address"
        }
      ],
      "stateMutability": "view",
      "type": "function"
    }
  ],
  "bytecode": "0x608060405234801561001057600080fd5b506118e0806100206000396000f3fe608060405234801561001057600080fd5b50600436106100ff5760003560e01c80634592329b1161009757806398b314661161006657806398b31466146101ea578063a6c03437146101fd578063f2fde38b1461021c578063fd4e17aa1461022f57600080fd5b80634592329b146101b357806368d4e544146101bc578063715018a6146101d15780638da5cb5b146101d957600080fd5b80632da5351c116100d35780632da5351c1461016e578063308ff0c9146101775780633644e51514610180578063384c4cf51461018857600080fd5b80622f5df5146101045780630a3665da1461012d5780632187e8f9146101445780632bbdea4e14610159575b600080fd5b610117610112366004611220565b610238565b6040516101249190611267565b60405180910390f35b61013660675481565b604051908152602001610124565b61014c6105a8565b60405161012491906112ab565b61016c6101673660046113b4565b610636565b005b61013660665481565b61013660655481565b6101366109ac565b61019b610196366004611402565b6109bb565b6040516001600160a01b039091168152602001610124565b61013660715481565b6101c46109e5565b604051610124919061145f565b61016c610a47565b6033546001600160a01b031661019b565b61016c6101f8366004611472565b610a5b565b60695461020a9060ff1681565b60405160ff9091168152602001610124565b61016c61022a3660046114f0565b610cfc565b610136606b5481565b606060655482516102499190611521565b156102905760405162461bcd60e51b8152602060048201526012602482015271696e76616c6964207369676e61747572657360701b60448201526064015b60405180910390fd5b606954606554835160ff909216916000916102aa9161154b565b9050818110156103155760405162461bcd60e51b815260206004820152603060248201527f6c656e677468206f66207369676e617475726573206d7573742067726561746560448201526f1c881d1a185b881d1a1c995cda1bdb1960821b6064820152608401610287565b6000806000806000806000606a8054905067ffffffffffffffff81111561033e5761033e611169565b604051908082528060200260200182016040528015610367578160200160208202803683370190505b50905060008867ffffffffffffffff81111561038557610385611169565b6040519080825280602002602001820160405280156103ae578160200160208202803683370190505b50905060005b89881015610545576103c68d89610d75565b91985096509450876103d78161155f565b98505060018e88888860405160008152602001604052604051610416949392919093845260ff9290921660208401526040830152606082015260800190565b6020604051602081039080840390855afa158015610438573d6000803e3d6000fd5b5050604051601f1901519450506001600160a01b03841661048f5760405162461bcd60e51b8152602060048201526011602482015270696e76616c6964207369676e617475726560781b6044820152606401610287565b61049884610e23565b606a54909150811015806104c257508281815181106104b9576104b961157a565b60200260200101515b156104cc576103b4565b60018382815181106104e0576104e061157a565b91151560209283029190910190910152886104fa8161155f565b99508190508261050b60018b611590565b8151811061051b5761051b61157a565b6020026020010181815250508a8910610540575099506105a298505050505050505050565b6103b4565b8a8910156105955760405162461bcd60e51b815260206004820152601760248201527f7369676e617475726573206e6f742076657269666965640000000000000000006044820152606401610287565b5099505050505050505050505b92915050565b606880546105b5906115a7565b80601f01602080910402602001604051908101604052809291908181526020018280546105e1906115a7565b801561062e5780601f106106035761010080835404028352916020019161062e565b820191906000526020600020905b81548152906001019060200180831161061157829003601f168201915b505050505081565b600054610100900460ff16158080156106565750600054600160ff909116105b806106705750303b158015610670575060005460ff166001145b6106d35760405162461bcd60e51b815260206004820152602e60248201527f496e697469616c697a61626c653a20636f6e747261637420697320616c72656160448201526d191e481a5b9a5d1a585b1a5e995960921b6064820152608401610287565b6000805460ff1916600117905580156106f6576000805461ff0019166101001790555b6041606555611388606655600360675560408051808201909152600e8082526d2a32b09026b0b4b73a30b4b732b960911b602090920191825261073b9160689161107b565b507f1d67c1fa3f9d6b80f0599d303ffad35c634615c72d95e2a13600b856f2a409e7606b55604051600090610772906068906115e2565b6040805191829003822082820190915260018252603160f81b602090920191909152606e8190557fc89efdaa54c0f20c7adf612882df0950f5a951637e0307cdcb4c672f298b8bc6606f8190559091507f8b73c3c69bb8fe3d512ecc4cf759cc79239f7b179b0ffacaa9a75d522b39400f46606d556107f2818484610e8b565b606c556070819055855161083e5760405162461bcd60e51b815260206004820152601360248201527276616c696461746f727320617265206e6f6e6560681b6044820152606401610287565b60008560ff16116108615760405162461bcd60e51b81526004016102879061167e565b606654865111156108845760405162461bcd60e51b8152600401610287906116b5565b606754865110156108a75760405162461bcd60e51b8152600401610287906116fb565b6108b386516002610ed5565b8560ff1610156108d55760405162461bcd60e51b81526004016102879061173d565b85516108e890606a9060208901906110ff565b5085518560ff16111561090d5760405162461bcd60e51b81526004016102879061167e565b6069805460ff191660ff87161790556040517f32cb5888262c3ec76b6cdb225e9c564a05bd6ecb592a6184f05e82cfb0d9e0d19061094e908890889061177f565b60405180910390a161095e610ee8565b50505080156109a7576000805461ff0019169055604051600181527f7f26b83ff96e1f2b6a682f133852f6798a09c465da95921460cefb38474024989060200160405180910390a15b505050565b60006109b6610f17565b905090565b606a81815481106109cb57600080fd5b6000918252602090912001546001600160a01b0316905081565b6060606a805480602002602001604051908101604052809291908181526020018280548015610a3d57602002820191906000526020600020905b81546001600160a01b03168152600190910190602001808311610a1f575b5050505050905090565b610a4f610f41565b610a596000610f9b565b565b610a63610f41565b6071548214610ab45760405162461bcd60e51b815260206004820152601e60248201527f6368616e676556616c696461746f7273206e6f6e636520696e76616c696400006044820152606401610287565b610abf826001610fed565b6071558351610b065760405162461bcd60e51b815260206004820152601360248201527276616c696461746f727320617265206e6f6e6560681b6044820152606401610287565b60008360ff1611610b295760405162461bcd60e51b81526004016102879061167e565b60665484511115610b4c5760405162461bcd60e51b8152600401610287906116b5565b60675484511015610b6f5760405162461bcd60e51b8152600401610287906116fb565b83518360ff161115610b935760405162461bcd60e51b81526004016102879061167e565b610b9f84516002610ed5565b8360ff161015610bc15760405162461bcd60e51b81526004016102879061173d565b60005b8451811015610c95576000610bda8260016117a4565b90505b8551811015610c8257858181518110610bf857610bf861157a565b60200260200101516001600160a01b0316868381518110610c1b57610c1b61157a565b60200260200101516001600160a01b03161415610c705760405162461bcd60e51b815260206004820152601360248201527272657065617465642076616c696461746f727360681b6044820152606401610287565b80610c7a8161155f565b915050610bdd565b5080610c8d8161155f565b915050610bc4565b508351610ca990606a9060208701906110ff565b506069805460ff191660ff85169081179091556040517f32cb5888262c3ec76b6cdb225e9c564a05bd6ecb592a6184f05e82cfb0d9e0d191610cee91606a91906117bc565b60405180910390a150505050565b610d04610f41565b6001600160a01b038116610d695760405162461bcd60e51b815260206004820152602660248201527f4f776e61626c653a206e6577206f776e657220697320746865207a65726f206160448201526564647265737360d01b6064820152608401610287565b610d7281610f9b565b50565b6000808080610d8585604161181b565b8681016020810151604082015160419092015160ff169650945092509050601b841015610dba57610db7601b8561183a565b93505b8360ff16601b1480610dcf57508360ff16601c145b610e1b5760405162461bcd60e51b815260206004820152601f60248201527f696e76616c69642076206f66207369676e617475726528722c20732c207629006044820152606401610287565b509250925092565b6000805b606a54811015610e8157826001600160a01b0316606a8281548110610e4e57610e4e61157a565b6000918252602090912001546001600160a01b03161415610e6f5792915050565b80610e798161155f565b915050610e27565b5050606a54919050565b600083838346604080516020810195909552840192909252606083015260808201523060a082015260c0016040516020818303038152906040528051906020012090509392505050565b6000610ee1828461154b565b9392505050565b600054610100900460ff16610f0f5760405162461bcd60e51b81526004016102879061185f565b610a5961104b565b6000606d54610f234690565b1415610f305750606c5490565b6109b6607054606e54606f54610e8b565b6033546001600160a01b03163314610a595760405162461bcd60e51b815260206004820181905260248201527f4f776e61626c653a2063616c6c6572206973206e6f7420746865206f776e65726044820152606401610287565b603380546001600160a01b038381166001600160a01b0319831681179093556040519116919082907f8be0079c531659141344cd1fd0a4f28419497f9722a3daafe3b4186f6b6457e090600090a35050565b6000610ff982846117a4565b9050828110156105a25760405162461bcd60e51b815260206004820152601960248201527f4f766572666c6f7720647572696e67206164646974696f6e2e000000000000006044820152606401610287565b600054610100900460ff166110725760405162461bcd60e51b81526004016102879061185f565b610a5933610f9b565b828054611087906115a7565b90600052602060002090601f0160209004810192826110a957600085556110ef565b82601f106110c257805160ff19168380011785556110ef565b828001600101855582156110ef579182015b828111156110ef5782518255916020019190600101906110d4565b506110fb929150611154565b5090565b8280548282559060005260206000209081019282156110ef579160200282015b828111156110ef57825182546001600160a01b0319166001600160a01b0390911617825560209092019160019091019061111f565b5b808211156110fb5760008155600101611155565b634e487b7160e01b600052604160045260246000fd5b604051601f8201601f1916810167ffffffffffffffff811182821017156111a8576111a8611169565b604052919050565b600082601f8301126111c157600080fd5b813567ffffffffffffffff8111156111db576111db611169565b6111ee601f8201601f191660200161117f565b81815284602083860101111561120357600080fd5b816020850160208301376000918101602001919091529392505050565b6000806040838503121561123357600080fd5b82359150602083013567ffffffffffffffff81111561125157600080fd5b61125d858286016111b0565b9150509250929050565b6020808252825182820181905260009190848201906040850190845b8181101561129f57835183529284019291840191600101611283565b50909695505050505050565b600060208083528351808285015260005b818110156112d8578581018301518582016040015282016112bc565b818111156112ea576000604083870101525b50601f01601f1916929092016040019392505050565b80356001600160a01b038116811461131757600080fd5b919050565b600082601f83011261132d57600080fd5b8135602067ffffffffffffffff82111561134957611349611169565b8160051b61135882820161117f565b928352848101820192828101908785111561137257600080fd5b83870192505b848310156113985761138983611300565b82529183019190830190611378565b979650505050505050565b803560ff8116811461131757600080fd5b600080604083850312156113c757600080fd5b823567ffffffffffffffff8111156113de57600080fd5b6113ea8582860161131c565b9250506113f9602084016113a3565b90509250929050565b60006020828403121561141457600080fd5b5035919050565b600081518084526020808501945080840160005b838110156114545781516001600160a01b03168752958201959082019060010161142f565b509495945050505050565b602081526000610ee1602083018461141b565b6000806000806080858703121561148857600080fd5b843567ffffffffffffffff808211156114a057600080fd5b6114ac8883890161131c565b95506114ba602088016113a3565b94506040870135935060608701359150808211156114d757600080fd5b506114e4878288016111b0565b91505092959194509250565b60006020828403121561150257600080fd5b610ee182611300565b634e487b7160e01b600052601260045260246000fd5b6000826115305761153061150b565b500690565b634e487b7160e01b600052601160045260246000fd5b60008261155a5761155a61150b565b500490565b600060001982141561157357611573611535565b5060010190565b634e487b7160e01b600052603260045260246000fd5b6000828210156115a2576115a2611535565b500390565b600181811c908216806115bb57607f821691505b602082108114156115dc57634e487b7160e01b600052602260045260246000fd5b50919050565b600080835481600182811c9150808316806115fe57607f831692505b602080841082141561161e57634e487b7160e01b86526022600452602486fd5b818015611632576001811461164357611670565b60ff19861689528489019650611670565b60008a81526020902060005b868110156116685781548b82015290850190830161164f565b505084890196505b509498975050505050505050565b60208082526019908201527f696e76616c6964206d756c74697369675468726573686f6c6400000000000000604082015260600190565b60208082526026908201527f6e756d626572206f662076616c696461746f7273206578636565647320746865604082015265081b1a5b5a5d60d21b606082015260800190565b60208082526022908201527f6e756d626572206f662076616c696461746f7273206973206e6f7420656e6f756040820152610ced60f31b606082015260800190565b60208082526022908201527f6d756c74697369675468726573686f6c64206973206c657373207468616e2035604082015261302560f01b606082015260800190565b604081526000611792604083018561141b565b905060ff831660208301529392505050565b600082198211156117b7576117b7611535565b500190565b6000604082016040835280855480835260608501915086600052602092508260002060005b828110156118065781546001600160a01b0316845292840192600191820191016117e1565b50505060ff9490941692019190915250919050565b600081600019048311821515161561183557611835611535565b500290565b600060ff821660ff84168060ff0382111561185757611857611535565b019392505050565b6020808252602b908201527f496e697469616c697a61626c653a20636f6e7472616374206973206e6f74206960408201526a6e697469616c697a696e6760a81b60608201526080019056fea2646970667358221220cc1d9dcb7113dda3dd0ba8326b0da3eb27ada8f74bcea94cc99c71ec0271716464736f6c634300080b0033",
  "linkReferences": {},
  "deployedLinkReferences": {}
}