{
  "_format": "hh-sol-artifact-1",
  "contractName": "COFFEE",
  "sourceName": "contracts/Coffee.sol",
  "abi": [
    {
      "inputs": [],
      "stateMutability": "nonpayable",
      "type": "constructor"
    },
    {
      "anonymous": false,
      "inputs": [
        {
          "indexed": true,
          "internalType": "address",
          "name": "owner",
          "type": "address"
        },
        {
          "indexed": true,
          "internalType": "address",
          "name": "spender",
          "type": "address"
        },
        {
          "indexed": false,
          "internalType": "uint256",
          "name": "value",
          "type": "uint256"
        }
      ],
      "name": "Approval",
      "type": "event"
    },
    {
      "anonymous": false,
      "inputs": [
        {
          "indexed": false,
          "internalType": "uint8",
          "name": "version",
          "type": "uint8"
        }
      ],
      "name": "Initialized",
      "type": "event"
    },
    {
      "anonymous": false,
      "inputs": [
        {
          "indexed": true,
          "internalType": "address",
          "name": "previousOwner",
          "type": "address"
        },
        {
          "indexed": true,
          "internalType": "address",
          "name": "newOwner",
          "type": "address"
        }
      ],
      "name": "OwnershipTransferred",
      "type": "event"
    },
    {
      "anonymous": false,
      "inputs": [
        {
          "indexed": false,
          "internalType": "address",
          "name": "account",
          "type": "address"
        }
      ],
      "name": "Paused",
      "type": "event"
    },
    {
      "anonymous": false,
      "inputs": [
        {
          "indexed": true,
          "internalType": "address",
          "name": "from",
          "type": "address"
        },
        {
          "indexed": true,
          "internalType": "address",
          "name": "to",
          "type": "address"
        },
        {
          "indexed": false,
          "internalType": "uint256",
          "name": "value",
          "type": "uint256"
        }
      ],
      "name": "Transfer",
      "type": "event"
    },
    {
      "anonymous": false,
      "inputs": [
        {
          "indexed": false,
          "internalType": "address",
          "name": "account",
          "type": "address"
        }
      ],
      "name": "Unpaused",
      "type": "event"
    },
    {
      "inputs": [],
      "name": "DOMAIN_SEPARATOR",
      "outputs": [
        {
          "internalType": "bytes32",
          "name": "",
          "type": "bytes32"
        }
      ],
      "stateMutability": "view",
      "type": "function"
    },
    {
      "inputs": [
        {
          "internalType": "address",
          "name": "owner",
          "type": "address"
        },
        {
          "internalType": "address",
          "name": "spender",
          "type": "address"
        }
      ],
      "name": "allowance",
      "outputs": [
        {
          "internalType": "uint256",
          "name": "",
          "type": "uint256"
        }
      ],
      "stateMutability": "view",
      "type": "function"
    },
    {
      "inputs": [
        {
          "internalType": "address",
          "name": "spender",
          "type": "address"
        },
        {
          "internalType": "uint256",
          "name": "amount",
          "type": "uint256"
        }
      ],
      "name": "approve",
      "outputs": [
        {
          "internalType": "bool",
          "name": "",
          "type": "bool"
        }
      ],
      "stateMutability": "nonpayable",
      "type": "function"
    },
    {
      "inputs": [
        {
          "internalType": "address",
          "name": "account",
          "type": "address"
        }
      ],
      "name": "balanceOf",
      "outputs": [
        {
          "internalType": "uint256",
          "name": "",
          "type": "uint256"
        }
      ],
      "stateMutability": "view",
      "type": "function"
    },
    {
      "inputs": [
        {
          "internalType": "uint256",
          "name": "amount",
          "type": "uint256"
        }
      ],
      "name": "burn",
      "outputs": [],
      "stateMutability": "nonpayable",
      "type": "function"
    },
    {
      "inputs": [
        {
          "internalType": "address",
          "name": "account",
          "type": "address"
        },
        {
          "internalType": "uint256",
          "name": "amount",
          "type": "uint256"
        }
      ],
      "name": "burnFrom",
      "outputs": [],
      "stateMutability": "nonpayable",
      "type": "function"
    },
    {
      "inputs": [],
      "name": "decimals",
      "outputs": [
        {
          "internalType": "uint8",
          "name": "",
          "type": "uint8"
        }
      ],
      "stateMutability": "view",
      "type": "function"
    },
    {
      "inputs": [
        {
          "internalType": "address",
          "name": "spender",
          "type": "address"
        },
        {
          "internalType": "uint256",
          "name": "subtractedValue",
          "type": "uint256"
        }
      ],
      "name": "decreaseAllowance",
      "outputs": [
        {
          "internalType": "bool",
          "name": "",
          "type": "bool"
        }
      ],
      "stateMutability": "nonpayable",
      "type": "function"
    },
    {
      "inputs": [
        {
          "internalType": "address",
          "name": "spender",
          "type": "address"
        },
        {
          "internalType": "uint256",
          "name": "addedValue",
          "type": "uint256"
        }
      ],
      "name": "increaseAllowance",
      "outputs": [
        {
          "internalType": "bool",
          "name": "",
          "type": "bool"
        }
      ],
      "stateMutability": "nonpayable",
      "type": "function"
    },
    {
      "inputs": [],
      "name": "initialize",
      "outputs": [],
      "stateMutability": "nonpayable",
      "type": "function"
    },
    {
      "inputs": [
        {
          "internalType": "address",
          "name": "to",
          "type": "address"
        },
        {
          "internalType": "uint256",
          "name": "amount",
          "type": "uint256"
        }
      ],
      "name": "mint",
      "outputs": [],
      "stateMutability": "nonpayable",
      "type": "function"
    },
    {
      "inputs": [],
      "name": "name",
      "outputs": [
        {
          "internalType": "string",
          "name": "",
          "type": "string"
        }
      ],
      "stateMutability": "view",
      "type": "function"
    },
    {
      "inputs": [
        {
          "internalType": "address",
          "name": "owner",
          "type": "address"
        }
      ],
      "name": "nonces",
      "outputs": [
        {
          "internalType": "uint256",
          "name": "",
          "type": "uint256"
        }
      ],
      "stateMutability": "view",
      "type": "function"
    },
    {
      "inputs": [],
      "name": "owner",
      "outputs": [
        {
          "internalType": "address",
          "name": "",
          "type": "address"
        }
      ],
      "stateMutability": "view",
      "type": "function"
    },
    {
      "inputs": [],
      "name": "pause",
      "outputs": [],
      "stateMutability": "nonpayable",
      "type": "function"
    },
    {
      "inputs": [],
      "name": "paused",
      "outputs": [
        {
          "internalType": "bool",
          "name": "",
          "type": "bool"
        }
      ],
      "stateMutability": "view",
      "type": "function"
    },
    {
      "inputs": [
        {
          "internalType": "address",
          "name": "owner",
          "type": "address"
        },
        {
          "internalType": "address",
          "name": "spender",
          "type": "address"
        },
        {
          "internalType": "uint256",
          "name": "value",
          "type": "uint256"
        },
        {
          "internalType": "uint256",
          "name": "deadline",
          "type": "uint256"
        },
        {
          "internalType": "uint8",
          "name": "v",
          "type": "uint8"
        },
        {
          "internalType": "bytes32",
          "name": "r",
          "type": "bytes32"
        },
        {
          "internalType": "bytes32",
          "name": "s",
          "type": "bytes32"
        }
      ],
      "name": "permit",
      "outputs": [],
      "stateMutability": "nonpayable",
      "type": "function"
    },
    {
      "inputs": [],
      "name": "renounceOwnership",
      "outputs": [],
      "stateMutability": "nonpayable",
      "type": "function"
    },
    {
      "inputs": [],
      "name": "symbol",
      "outputs": [
        {
          "internalType": "string",
          "name": "",
          "type": "string"
        }
      ],
      "stateMutability": "view",
      "type": "function"
    },
    {
      "inputs": [],
      "name": "totalSupply",
      "outputs": [
        {
          "internalType": "uint256",
          "name": "",
          "type": "uint256"
        }
      ],
      "stateMutability": "view",
      "type": "function"
    },
    {
      "inputs": [
        {
          "internalType": "address",
          "name": "to",
          "type": "address"
        },
        {
          "internalType": "uint256",
          "name": "amount",
          "type": "uint256"
        }
      ],
      "name": "transfer",
      "outputs": [
        {
          "internalType": "bool",
          "name": "",
          "type": "bool"
        }
      ],
      "stateMutability": "nonpayable",
      "type": "function"
    },
    {
      "inputs": [
        {
          "internalType": "address",
          "name": "from",
          "type": "address"
        },
        {
          "internalType": "address",
          "name": "to",
          "type": "address"
        },
        {
          "internalType": "uint256",
          "name": "amount",
          "type": "uint256"
        }
      ],
      "name": "transferFrom",
      "outputs": [
        {
          "internalType": "bool",
          "name": "",
          "type": "bool"
        }
      ],
      "stateMutability": "nonpayable",
      "type": "function"
    },
    {
      "inputs": [
        {
          "internalType": "address",
          "name": "newOwner",
          "type": "address"
        }
      ],
      "name": "transferOwnership",
      "outputs": [],
      "stateMutability": "nonpayable",
      "type": "function"
    },
    {
      "inputs": [],
      "name": "unpause",
      "outputs": [],
      "stateMutability": "nonpayable",
      "type": "function"
    }
  ],
  "bytecode": "0x608060405234801561001057600080fd5b5061001961001e565b6100de565b600054610100900460ff161561008a5760405162461bcd60e51b815260206004820152602760248201527f496e697469616c697a61626c653a20636f6e747261637420697320696e697469604482015266616c697a696e6760c81b606482015260840160405180910390fd5b60005460ff90811610156100dc576000805460ff191660ff9081179091556040519081527f7f26b83ff96e1f2b6a682f133852f6798a09c465da95921460cefb38474024989060200160405180910390a15b565b6119ae806100ed6000396000f3fe608060405234801561001057600080fd5b50600436106101585760003560e01c8063715018a6116100c357806395d89b411161007c57806395d89b41146102aa578063a457c2d7146102b2578063a9059cbb146102c5578063d505accf146102d8578063dd62ed3e146102eb578063f2fde38b146102fe57600080fd5b8063715018a61461025157806379cc6790146102595780637ecebe001461026c5780638129fc1c1461027f5780638456cb59146102875780638da5cb5b1461028f57600080fd5b8063395093511161011557806339509351146101da5780633f4ba83a146101ed57806340c10f19146101f757806342966c681461020a5780635c975abb1461021d57806370a082311461022857600080fd5b806306fdde031461015d578063095ea7b31461017b57806318160ddd1461019e57806323b872dd146101b0578063313ce567146101c35780633644e515146101d2575b600080fd5b610165610311565b60405161017291906116c6565b60405180910390f35b61018e610189366004611737565b6103a3565b6040519015158152602001610172565b6035545b604051908152602001610172565b61018e6101be366004611761565b6103bb565b60405160128152602001610172565b6101a26103df565b61018e6101e8366004611737565b6103ee565b6101f5610410565b005b6101f5610205366004611737565b610422565b6101f561021836600461179d565b610449565b60975460ff1661018e565b6101a26102363660046117b6565b6001600160a01b031660009081526033602052604090205490565b6101f5610456565b6101f5610267366004611737565b610468565b6101a261027a3660046117b6565b61047d565b6101f561049e565b6101f5610640565b60c9546040516001600160a01b039091168152602001610172565b610165610650565b61018e6102c0366004611737565b61065f565b61018e6102d3366004611737565b6106da565b6101f56102e63660046117d8565b6106e8565b6101a26102f936600461184b565b61084c565b6101f561030c3660046117b6565b610877565b6060603680546103209061187e565b80601f016020809104026020016040519081016040528092919081815260200182805461034c9061187e565b80156103995780601f1061036e57610100808354040283529160200191610399565b820191906000526020600020905b81548152906001019060200180831161037c57829003601f168201915b5050505050905090565b6000336103b18185856108ed565b5060019392505050565b6000336103c9858285610a12565b6103d4858585610a8c565b506001949350505050565b60006103e9610c65565b905090565b6000336103b1818585610401838361084c565b61040b91906118c9565b6108ed565b610418610ce0565b610420610d3a565b565b61042a610ce0565b6104458261044083670de0b6b3a76400006118e1565b610d8c565b5050565b6104533382610e77565b50565b61045e610ce0565b6104206000610fce565b610473823383610a12565b6104458282610e77565b6001600160a01b038116600090815261012f60205260408120545b92915050565b600054610100900460ff16158080156104be5750600054600160ff909116105b806104d85750303b1580156104d8575060005460ff166001145b6105405760405162461bcd60e51b815260206004820152602e60248201527f496e697469616c697a61626c653a20636f6e747261637420697320616c72656160448201526d191e481a5b9a5d1a585b1a5e995960921b60648201526084015b60405180910390fd5b6000805460ff191660011790558015610563576000805461ff0019166101001790555b6105b16040518060400160405280600e81526020016d10d3d191915148141c9bda9958dd60921b81525060405180604001604052806006815260200165434f4646454560d01b815250611020565b6105b9611051565b6105c1611078565b6105c96110a7565b6105f86040518060400160405280600e81526020016d10d3d191915148141c9bda9958dd60921b8152506110d6565b8015610453576000805461ff0019169055604051600181527f7f26b83ff96e1f2b6a682f133852f6798a09c465da95921460cefb38474024989060200160405180910390a150565b610648610ce0565b610420611120565b6060603780546103209061187e565b6000338161066d828661084c565b9050838110156106cd5760405162461bcd60e51b815260206004820152602560248201527f45524332303a2064656372656173656420616c6c6f77616e63652062656c6f77604482015264207a65726f60d81b6064820152608401610537565b6103d482868684036108ed565b6000336103b1818585610a8c565b834211156107385760405162461bcd60e51b815260206004820152601d60248201527f45524332305065726d69743a206578706972656420646561646c696e650000006044820152606401610537565b60007f6e71edae12b1b97f4d1f60370fef10105fa2faae0126114a169c64845d6126c98888886107678c61115d565b6040805160208101969096526001600160a01b0394851690860152929091166060840152608083015260a082015260c0810186905260e00160405160208183030381529060405280519060200120905060006107c282611186565b905060006107d2828787876111d4565b9050896001600160a01b0316816001600160a01b0316146108355760405162461bcd60e51b815260206004820152601e60248201527f45524332305065726d69743a20696e76616c6964207369676e617475726500006044820152606401610537565b6108408a8a8a6108ed565b50505050505050505050565b6001600160a01b03918216600090815260346020908152604080832093909416825291909152205490565b61087f610ce0565b6001600160a01b0381166108e45760405162461bcd60e51b815260206004820152602660248201527f4f776e61626c653a206e6577206f776e657220697320746865207a65726f206160448201526564647265737360d01b6064820152608401610537565b61045381610fce565b6001600160a01b03831661094f5760405162461bcd60e51b8152602060048201526024808201527f45524332303a20617070726f76652066726f6d20746865207a65726f206164646044820152637265737360e01b6064820152608401610537565b6001600160a01b0382166109b05760405162461bcd60e51b815260206004820152602260248201527f45524332303a20617070726f766520746f20746865207a65726f206164647265604482015261737360f01b6064820152608401610537565b6001600160a01b0383811660008181526034602090815260408083209487168084529482529182902085905590518481527f8c5be1e5ebec7d5bd14f71427d1e84f3dd0314c0f7b2291e5b200ac8c7c3b92591015b60405180910390a3505050565b6000610a1e848461084c565b90506000198114610a865781811015610a795760405162461bcd60e51b815260206004820152601d60248201527f45524332303a20696e73756666696369656e7420616c6c6f77616e63650000006044820152606401610537565b610a8684848484036108ed565b50505050565b6001600160a01b038316610af05760405162461bcd60e51b815260206004820152602560248201527f45524332303a207472616e736665722066726f6d20746865207a65726f206164604482015264647265737360d81b6064820152608401610537565b6001600160a01b038216610b525760405162461bcd60e51b815260206004820152602360248201527f45524332303a207472616e7366657220746f20746865207a65726f206164647260448201526265737360e81b6064820152608401610537565b610b5d8383836111fc565b6001600160a01b03831660009081526033602052604090205481811015610bd55760405162461bcd60e51b815260206004820152602660248201527f45524332303a207472616e7366657220616d6f756e7420657863656564732062604482015265616c616e636560d01b6064820152608401610537565b6001600160a01b03808516600090815260336020526040808220858503905591851681529081208054849290610c0c9084906118c9565b92505081905550826001600160a01b0316846001600160a01b03167fddf252ad1be2c89b69c2b068fc378daa952ba7f163c4a11628f55a4df523b3ef84604051610c5891815260200190565b60405180910390a3610a86565b60006103e97f8b73c3c69bb8fe3d512ecc4cf759cc79239f7b179b0ffacaa9a75d522b39400f610c9460fb5490565b60fc546040805160208101859052908101839052606081018290524660808201523060a082015260009060c0016040516020818303038152906040528051906020012090509392505050565b60c9546001600160a01b031633146104205760405162461bcd60e51b815260206004820181905260248201527f4f776e61626c653a2063616c6c6572206973206e6f7420746865206f776e65726044820152606401610537565b610d42611204565b6097805460ff191690557f5db9ee0a495bf2e6ff9c91a7834c1ba4fdd244a5e8aa4e537bd38aeae4b073aa335b6040516001600160a01b03909116815260200160405180910390a1565b6001600160a01b038216610de25760405162461bcd60e51b815260206004820152601f60248201527f45524332303a206d696e7420746f20746865207a65726f2061646472657373006044820152606401610537565b610dee600083836111fc565b8060356000828254610e0091906118c9565b90915550506001600160a01b03821660009081526033602052604081208054839290610e2d9084906118c9565b90915550506040518181526001600160a01b038316906000907fddf252ad1be2c89b69c2b068fc378daa952ba7f163c4a11628f55a4df523b3ef9060200160405180910390a35050565b6001600160a01b038216610ed75760405162461bcd60e51b815260206004820152602160248201527f45524332303a206275726e2066726f6d20746865207a65726f206164647265736044820152607360f81b6064820152608401610537565b610ee3826000836111fc565b6001600160a01b03821660009081526033602052604090205481811015610f575760405162461bcd60e51b815260206004820152602260248201527f45524332303a206275726e20616d6f756e7420657863656564732062616c616e604482015261636560f01b6064820152608401610537565b6001600160a01b0383166000908152603360205260408120838303905560358054849290610f86908490611900565b90915550506040518281526000906001600160a01b038516907fddf252ad1be2c89b69c2b068fc378daa952ba7f163c4a11628f55a4df523b3ef90602001610a05565b505050565b60c980546001600160a01b038381166001600160a01b0319831681179093556040519116919082907f8be0079c531659141344cd1fd0a4f28419497f9722a3daafe3b4186f6b6457e090600090a35050565b600054610100900460ff166110475760405162461bcd60e51b815260040161053790611917565b610445828261124d565b600054610100900460ff166104205760405162461bcd60e51b815260040161053790611917565b600054610100900460ff1661109f5760405162461bcd60e51b815260040161053790611917565b61042061129b565b600054610100900460ff166110ce5760405162461bcd60e51b815260040161053790611917565b6104206112ce565b600054610100900460ff166110fd5760405162461bcd60e51b815260040161053790611917565b61045381604051806040016040528060018152602001603160f81b8152506112fe565b61112861133f565b6097805460ff191660011790557f62e78cea01bee320cd4e420270b5ea74000d11b0c9f74754ebdbfc544b05a258610d6f3390565b6001600160a01b038116600090815261012f602052604090208054600181018255905b50919050565b6000610498611193610c65565b8360405161190160f01b6020820152602281018390526042810182905260009060620160405160208183030381529060405280519060200120905092915050565b60008060006111e587878787611385565b915091506111f281611472565b5095945050505050565b610fc961133f565b60975460ff166104205760405162461bcd60e51b815260206004820152601460248201527314185d5cd8589b194e881b9bdd081c185d5cd95960621b6044820152606401610537565b600054610100900460ff166112745760405162461bcd60e51b815260040161053790611917565b815161128790603690602085019061162d565b508051610fc990603790602084019061162d565b600054610100900460ff166112c25760405162461bcd60e51b815260040161053790611917565b6097805460ff19169055565b600054610100900460ff166112f55760405162461bcd60e51b815260040161053790611917565b61042033610fce565b600054610100900460ff166113255760405162461bcd60e51b815260040161053790611917565b81516020928301208151919092012060fb9190915560fc55565b60975460ff16156104205760405162461bcd60e51b815260206004820152601060248201526f14185d5cd8589b194e881c185d5cd95960821b6044820152606401610537565b6000807f7fffffffffffffffffffffffffffffff5d576e7357a4501ddfe92f46681b20a08311156113bc5750600090506003611469565b8460ff16601b141580156113d457508460ff16601c14155b156113e55750600090506004611469565b6040805160008082526020820180845289905260ff881692820192909252606081018690526080810185905260019060a0016020604051602081039080840390855afa158015611439573d6000803e3d6000fd5b5050604051601f1901519150506001600160a01b03811661146257600060019250925050611469565b9150600090505b94509492505050565b600081600481111561148657611486611962565b141561148f5750565b60018160048111156114a3576114a3611962565b14156114f15760405162461bcd60e51b815260206004820152601860248201527f45434453413a20696e76616c6964207369676e617475726500000000000000006044820152606401610537565b600281600481111561150557611505611962565b14156115535760405162461bcd60e51b815260206004820152601f60248201527f45434453413a20696e76616c6964207369676e6174757265206c656e677468006044820152606401610537565b600381600481111561156757611567611962565b14156115c05760405162461bcd60e51b815260206004820152602260248201527f45434453413a20696e76616c6964207369676e6174757265202773272076616c604482015261756560f01b6064820152608401610537565b60048160048111156115d4576115d4611962565b14156104535760405162461bcd60e51b815260206004820152602260248201527f45434453413a20696e76616c6964207369676e6174757265202776272076616c604482015261756560f01b6064820152608401610537565b8280546116399061187e565b90600052602060002090601f01602090048101928261165b57600085556116a1565b82601f1061167457805160ff19168380011785556116a1565b828001600101855582156116a1579182015b828111156116a1578251825591602001919060010190611686565b506116ad9291506116b1565b5090565b5b808211156116ad57600081556001016116b2565b600060208083528351808285015260005b818110156116f3578581018301518582016040015282016116d7565b81811115611705576000604083870101525b50601f01601f1916929092016040019392505050565b80356001600160a01b038116811461173257600080fd5b919050565b6000806040838503121561174a57600080fd5b6117538361171b565b946020939093013593505050565b60008060006060848603121561177657600080fd5b61177f8461171b565b925061178d6020850161171b565b9150604084013590509250925092565b6000602082840312156117af57600080fd5b5035919050565b6000602082840312156117c857600080fd5b6117d18261171b565b9392505050565b600080600080600080600060e0888a0312156117f357600080fd5b6117fc8861171b565b965061180a6020890161171b565b95506040880135945060608801359350608088013560ff8116811461182e57600080fd5b9699959850939692959460a0840135945060c09093013592915050565b6000806040838503121561185e57600080fd5b6118678361171b565b91506118756020840161171b565b90509250929050565b600181811c9082168061189257607f821691505b6020821081141561118057634e487b7160e01b600052602260045260246000fd5b634e487b7160e01b600052601160045260246000fd5b600082198211156118dc576118dc6118b3565b500190565b60008160001904831182151516156118fb576118fb6118b3565b500290565b600082821015611912576119126118b3565b500390565b6020808252602b908201527f496e697469616c697a61626c653a20636f6e7472616374206973206e6f74206960408201526a6e697469616c697a696e6760a81b606082015260800190565b634e487b7160e01b600052602160045260246000fdfea2646970667358221220b4d0f0c18ffd1348ad242d0e29ca463fa42fbaa20242e9136f781845efec331364736f6c634300080b0033",
  "linkReferences": {},
  "deployedLinkReferences": {}
}