{
  "_format": "hh-sol-artifact-1",
  "contractName": "TokenVesting",
  "sourceName": "contracts/TokenVesting.sol",
  "abi": [
    {
      "inputs": [
        {
          "internalType": "address",
          "name": "token_",
          "type": "address"
        }
      ],
      "stateMutability": "nonpayable",
      "type": "constructor"
    },
    {
      "anonymous": false,
      "inputs": [
        {
          "indexed": true,
          "internalType": "address",
          "name": "previousOwner",
          "type": "address"
        },
        {
          "indexed": true,
          "internalType": "address",
          "name": "newOwner",
          "type": "address"
        }
      ],
      "name": "OwnershipTransferred",
      "type": "event"
    },
    {
      "anonymous": false,
      "inputs": [
        {
          "indexed": false,
          "internalType": "uint256",
          "name": "amount",
          "type": "uint256"
        }
      ],
      "name": "Released",
      "type": "event"
    },
    {
      "anonymous": false,
      "inputs": [],
      "name": "Revoked",
      "type": "event"
    },
    {
      "stateMutability": "payable",
      "type": "fallback"
    },
    {
      "inputs": [
        {
          "internalType": "address",
          "name": "holder",
          "type": "address"
        }
      ],
      "name": "computeNextVestingScheduleIdForHolder",
      "outputs": [
        {
          "internalType": "bytes32",
          "name": "",
          "type": "bytes32"
        }
      ],
      "stateMutability": "view",
      "type": "function"
    },
    {
      "inputs": [
        {
          "internalType": "bytes32",
          "name": "vestingScheduleId",
          "type": "bytes32"
        }
      ],
      "name": "computeReleasableAmount",
      "outputs": [
        {
          "internalType": "uint256",
          "name": "",
          "type": "uint256"
        }
      ],
      "stateMutability": "view",
      "type": "function"
    },
    {
      "inputs": [
        {
          "internalType": "address",
          "name": "holder",
          "type": "address"
        },
        {
          "internalType": "uint256",
          "name": "index",
          "type": "uint256"
        }
      ],
      "name": "computeVestingScheduleIdForAddressAndIndex",
      "outputs": [
        {
          "internalType": "bytes32",
          "name": "",
          "type": "bytes32"
        }
      ],
      "stateMutability": "pure",
      "type": "function"
    },
    {
      "inputs": [
        {
          "internalType": "address",
          "name": "_beneficiary",
          "type": "address"
        },
        {
          "internalType": "uint256",
          "name": "_start",
          "type": "uint256"
        },
        {
          "internalType": "uint256",
          "name": "_cliff",
          "type": "uint256"
        },
        {
          "internalType": "uint256",
          "name": "_duration",
          "type": "uint256"
        },
        {
          "internalType": "uint256",
          "name": "_slicePeriodSeconds",
          "type": "uint256"
        },
        {
          "internalType": "bool",
          "name": "_revocable",
          "type": "bool"
        },
        {
          "internalType": "uint256",
          "name": "_amount",
          "type": "uint256"
        }
      ],
      "name": "createVestingSchedule",
      "outputs": [],
      "stateMutability": "nonpayable",
      "type": "function"
    },
    {
      "inputs": [
        {
          "components": [
            {
              "internalType": "address",
              "name": "beneficiary",
              "type": "address"
            },
            {
              "internalType": "uint256",
              "name": "start",
              "type": "uint256"
            },
            {
              "internalType": "uint256",
              "name": "cliff",
              "type": "uint256"
            },
            {
              "internalType": "uint256",
              "name": "duration",
              "type": "uint256"
            },
            {
              "internalType": "uint256",
              "name": "slicePeriodSeconds",
              "type": "uint256"
            },
            {
              "internalType": "bool",
              "name": "revocable",
              "type": "bool"
            },
            {
              "internalType": "uint256",
              "name": "amount",
              "type": "uint256"
            }
          ],
          "internalType": "struct TokenVesting.vestingScheduleStruct[]",
          "name": "_vestingSchedule",
          "type": "tuple[]"
        }
      ],
      "name": "createVestingSchedules",
      "outputs": [],
      "stateMutability": "nonpayable",
      "type": "function"
    },
    {
      "inputs": [
        {
          "internalType": "address",
          "name": "holder",
          "type": "address"
        }
      ],
      "name": "getLastVestingScheduleForHolder",
      "outputs": [
        {
          "components": [
            {
              "internalType": "bool",
              "name": "initialized",
              "type": "bool"
            },
            {
              "internalType": "address",
              "name": "beneficiary",
              "type": "address"
            },
            {
              "internalType": "uint256",
              "name": "cliff",
              "type": "uint256"
            },
            {
              "internalType": "uint256",
              "name": "start",
              "type": "uint256"
            },
            {
              "internalType": "uint256",
              "name": "duration",
              "type": "uint256"
            },
            {
              "internalType": "uint256",
              "name": "slicePeriodSeconds",
              "type": "uint256"
            },
            {
              "internalType": "bool",
              "name": "revocable",
              "type": "bool"
            },
            {
              "internalType": "uint256",
              "name": "amountTotal",
              "type": "uint256"
            },
            {
              "internalType": "uint256",
              "name": "released",
              "type": "uint256"
            },
            {
              "internalType": "bool",
              "name": "revoked",
              "type": "bool"
            }
          ],
          "internalType": "struct TokenVesting.VestingSchedule",
          "name": "",
          "type": "tuple"
        }
      ],
      "stateMutability": "view",
      "type": "function"
    },
    {
      "inputs": [],
      "name": "getToken",
      "outputs": [
        {
          "internalType": "address",
          "name": "",
          "type": "address"
        }
      ],
      "stateMutability": "view",
      "type": "function"
    },
    {
      "inputs": [
        {
          "internalType": "uint256",
          "name": "index",
          "type": "uint256"
        }
      ],
      "name": "getVestingIdAtIndex",
      "outputs": [
        {
          "internalType": "bytes32",
          "name": "",
          "type": "bytes32"
        }
      ],
      "stateMutability": "view",
      "type": "function"
    },
    {
      "inputs": [
        {
          "internalType": "bytes32",
          "name": "vestingScheduleId",
          "type": "bytes32"
        }
      ],
      "name": "getVestingSchedule",
      "outputs": [
        {
          "components": [
            {
              "internalType": "bool",
              "name": "initialized",
              "type": "bool"
            },
            {
              "internalType": "address",
              "name": "beneficiary",
              "type": "address"
            },
            {
              "internalType": "uint256",
              "name": "cliff",
              "type": "uint256"
            },
            {
              "internalType": "uint256",
              "name": "start",
              "type": "uint256"
            },
            {
              "internalType": "uint256",
              "name": "duration",
              "type": "uint256"
            },
            {
              "internalType": "uint256",
              "name": "slicePeriodSeconds",
              "type": "uint256"
            },
            {
              "internalType": "bool",
              "name": "revocable",
              "type": "bool"
            },
            {
              "internalType": "uint256",
              "name": "amountTotal",
              "type": "uint256"
            },
            {
              "internalType": "uint256",
              "name": "released",
              "type": "uint256"
            },
            {
              "internalType": "bool",
              "name": "revoked",
              "type": "bool"
            }
          ],
          "internalType": "struct TokenVesting.VestingSchedule",
          "name": "",
          "type": "tuple"
        }
      ],
      "stateMutability": "view",
      "type": "function"
    },
    {
      "inputs": [
        {
          "internalType": "address",
          "name": "holder",
          "type": "address"
        },
        {
          "internalType": "uint256",
          "name": "index",
          "type": "uint256"
        }
      ],
      "name": "getVestingScheduleByAddressAndIndex",
      "outputs": [
        {
          "components": [
            {
              "internalType": "bool",
              "name": "initialized",
              "type": "bool"
            },
            {
              "internalType": "address",
              "name": "beneficiary",
              "type": "address"
            },
            {
              "internalType": "uint256",
              "name": "cliff",
              "type": "uint256"
            },
            {
              "internalType": "uint256",
              "name": "start",
              "type": "uint256"
            },
            {
              "internalType": "uint256",
              "name": "duration",
              "type": "uint256"
            },
            {
              "internalType": "uint256",
              "name": "slicePeriodSeconds",
              "type": "uint256"
            },
            {
              "internalType": "bool",
              "name": "revocable",
              "type": "bool"
            },
            {
              "internalType": "uint256",
              "name": "amountTotal",
              "type": "uint256"
            },
            {
              "internalType": "uint256",
              "name": "released",
              "type": "uint256"
            },
            {
              "internalType": "bool",
              "name": "revoked",
              "type": "bool"
            }
          ],
          "internalType": "struct TokenVesting.VestingSchedule",
          "name": "",
          "type": "tuple"
        }
      ],
      "stateMutability": "view",
      "type": "function"
    },
    {
      "inputs": [],
      "name": "getVestingSchedulesCount",
      "outputs": [
        {
          "internalType": "uint256",
          "name": "",
          "type": "uint256"
        }
      ],
      "stateMutability": "view",
      "type": "function"
    },
    {
      "inputs": [
        {
          "internalType": "address",
          "name": "_beneficiary",
          "type": "address"
        }
      ],
      "name": "getVestingSchedulesCountByBeneficiary",
      "outputs": [
        {
          "internalType": "uint256",
          "name": "",
          "type": "uint256"
        }
      ],
      "stateMutability": "view",
      "type": "function"
    },
    {
      "inputs": [],
      "name": "getVestingSchedulesTotalAmount",
      "outputs": [
        {
          "internalType": "uint256",
          "name": "",
          "type": "uint256"
        }
      ],
      "stateMutability": "view",
      "type": "function"
    },
    {
      "inputs": [],
      "name": "getWithdrawableAmount",
      "outputs": [
        {
          "internalType": "uint256",
          "name": "",
          "type": "uint256"
        }
      ],
      "stateMutability": "view",
      "type": "function"
    },
    {
      "inputs": [],
      "name": "owner",
      "outputs": [
        {
          "internalType": "address",
          "name": "",
          "type": "address"
        }
      ],
      "stateMutability": "view",
      "type": "function"
    },
    {
      "inputs": [
        {
          "internalType": "bytes32",
          "name": "vestingScheduleId",
          "type": "bytes32"
        },
        {
          "internalType": "uint256",
          "name": "amount",
          "type": "uint256"
        }
      ],
      "name": "release",
      "outputs": [],
      "stateMutability": "nonpayable",
      "type": "function"
    },
    {
      "inputs": [],
      "name": "renounceOwnership",
      "outputs": [],
      "stateMutability": "nonpayable",
      "type": "function"
    },
    {
      "inputs": [
        {
          "internalType": "bytes32",
          "name": "vestingScheduleId",
          "type": "bytes32"
        }
      ],
      "name": "revoke",
      "outputs": [],
      "stateMutability": "nonpayable",
      "type": "function"
    },
    {
      "inputs": [
        {
          "internalType": "address",
          "name": "newOwner",
          "type": "address"
        }
      ],
      "name": "transferOwnership",
      "outputs": [],
      "stateMutability": "nonpayable",
      "type": "function"
    },
    {
      "inputs": [
        {
          "internalType": "uint256",
          "name": "amount",
          "type": "uint256"
        }
      ],
      "name": "withdraw",
      "outputs": [],
      "stateMutability": "nonpayable",
      "type": "function"
    },
    {
      "stateMutability": "payable",
      "type": "receive"
    }
  ],
  "bytecode": "0x60a060405234801561001057600080fd5b5060405162001eaa38038062001eaa8339810160408190526100319161009a565b600080546001600160a01b031916339081178255604051909182917f8be0079c531659141344cd1fd0a4f28419497f9722a3daafe3b4186f6b6457e0908290a350600180556001600160a01b03811661008957600080fd5b6001600160a01b03166080526100ca565b6000602082840312156100ac57600080fd5b81516001600160a01b03811681146100c357600080fd5b9392505050565b608051611daf620000fb60003960008181610173015281816109aa01528181610c730152610f8c0152611daf6000f3fe6080604052600436106101175760003560e01c80638af104da1161009a578063ea1bb3d511610061578063ea1bb3d51461032b578063f2fde38b1461034b578063f51321d71461036b578063f7c469f01461038b578063f9079b37146103ab57005b80638af104da146102985780638da5cb5b146102b857806390be10cc146102d65780639ef346b4146102eb578063b75c7dc61461030b57005b80635a7bb69a116100de5780635a7bb69a146101e057806366afd8ef14610216578063715018a6146102365780637e913dc61461024b578063895005b61461027857005b8063130836171461012057806317e289e91461014457806321df0da7146101645780632e1a7d4d146101ab57806348deb471146101cb57005b3661011e57005b005b34801561012c57600080fd5b506002545b6040519081526020015b60405180910390f35b34801561015057600080fd5b5061011e61015f3660046118ea565b6103cb565b34801561017057600080fd5b507f00000000000000000000000000000000000000000000000000000000000000005b6040516001600160a01b03909116815260200161013b565b3480156101b757600080fd5b5061011e6101c6366004611951565b610844565b3480156101d757600080fd5b50600454610131565b3480156101ec57600080fd5b506101316101fb36600461196a565b6001600160a01b031660009081526005602052604090205490565b34801561022257600080fd5b5061011e610231366004611985565b6109d8565b34801561024257600080fd5b5061011e610ca8565b34801561025757600080fd5b5061026b61026636600461196a565b610d1c565b60405161013b91906119a7565b34801561028457600080fd5b5061011e610293366004611aa2565b610df4565b3480156102a457600080fd5b506101316102b3366004611bae565b610f1a565b3480156102c457600080fd5b506000546001600160a01b0316610193565b3480156102e257600080fd5b50610131610f61565b3480156102f757600080fd5b5061026b610306366004611951565b611002565b34801561031757600080fd5b5061011e610326366004611951565b6110a9565b34801561033757600080fd5b50610131610346366004611951565b611272565b34801561035757600080fd5b5061011e61036636600461196a565b61135c565b34801561037757600080fd5b5061026b610386366004611bae565b611446565b34801561039757600080fd5b506101316103a636600461196a565b611462565b3480156103b757600080fd5b506101316103c6366004611951565b61148c565b6000546001600160a01b031633146103fe5760405162461bcd60e51b81526004016103f590611bd8565b60405180910390fd5b80306001600160a01b03166390be10cc6040518163ffffffff1660e01b8152600401602060405180830381865afa15801561043d573d6000803e3d6000fd5b505050506040513d601f19601f820116820180604052508101906104619190611c0d565b10156104e85760405162461bcd60e51b815260206004820152604a60248201527f546f6b656e56657374696e673a2063616e6e6f7420637265617465207665737460448201527f696e67207363686564756c652062656361757365206e6f742073756666696369606482015269656e7420746f6b656e7360b01b608482015260a4016103f5565b600084116105435760405162461bcd60e51b815260206004820152602260248201527f546f6b656e56657374696e673a206475726174696f6e206d757374206265203e604482015261020360f41b60648201526084016103f5565b600081116105935760405162461bcd60e51b815260206004820181905260248201527f546f6b656e56657374696e673a20616d6f756e74206d757374206265203e203060448201526064016103f5565b60018310156105fa5760405162461bcd60e51b815260206004820152602d60248201527f546f6b656e56657374696e673a20736c696365506572696f645365636f6e647360448201526c206d757374206265203e3d203160981b60648201526084016103f5565b604051630f7c469f60e41b81526001600160a01b0388166004820152600090309063f7c469f090602401602060405180830381865afa158015610641573d6000803e3d6000fd5b505050506040513d601f19601f820116820180604052508101906106659190611c0d565b905060006106738888611514565b90506040518061014001604052806001151581526020018a6001600160a01b03168152602001828152602001898152602001878152602001868152602001851515815260200184815260200160008152602001600015158152506003600084815260200190815260200160002060008201518160000160006101000a81548160ff02191690831515021790555060208201518160000160016101000a8154816001600160a01b0302191690836001600160a01b0316021790555060408201518160010155606082015181600201556080820151816003015560a0820151816004015560c08201518160050160006101000a81548160ff02191690831515021790555060e0820151816006015561010082015181600701556101208201518160080160006101000a81548160ff0219169083151502179055509050506107c38360045461151490919063ffffffff16565b6004556002805460018181019092557f405787fa12a823e0f2b7631cc41b3ba8828b3321ca811111fa75cd3aa3bb5ace018390556001600160a01b038a166000908152600560205260409020549061081c908290611514565b6001600160a01b03909a16600090815260056020526040902099909955505050505050505050565b600260015414156108975760405162461bcd60e51b815260206004820152601f60248201527f5265656e7472616e637947756172643a207265656e7472616e742063616c6c0060448201526064016103f5565b60026001556000546001600160a01b031633146108c65760405162461bcd60e51b81526004016103f590611bd8565b80306001600160a01b03166390be10cc6040518163ffffffff1660e01b8152600401602060405180830381865afa158015610905573d6000803e3d6000fd5b505050506040513d601f19601f820116820180604052508101906109299190611c0d565b101561098b5760405162461bcd60e51b815260206004820152602b60248201527f546f6b656e56657374696e673a206e6f7420656e6f756768207769746864726160448201526a7761626c652066756e647360a81b60648201526084016103f5565b6109d16109a06000546001600160a01b031690565b6001600160a01b037f0000000000000000000000000000000000000000000000000000000000000000169083611520565b5060018055565b60026001541415610a2b5760405162461bcd60e51b815260206004820152601f60248201527f5265656e7472616e637947756172643a207265656e7472616e742063616c6c0060448201526064016103f5565b60026001908155600083815260036020526040902054839160ff909116151514610a5457600080fd5b60008181526003602052604090206008015460ff1615610a7357600080fd5b6000838152600360205260408120805491549091336001600160a01b03610100909204821681149291909116148180610aa95750805b610b265760405162461bcd60e51b815260206004820152604260248201527f546f6b656e56657374696e673a206f6e6c792062656e6566696369617279206160448201527f6e64206f776e65722063616e2072656c656173652076657374656420746f6b656064820152616e7360f01b608482015260a4016103f5565b6040805161014081018252845460ff808216151583526001600160a01b03610100928390041660208401526001870154938301939093526002860154606083015260038601546080830152600486015460a083015260058601548316151560c0830152600686015460e083015260078601549082015260088501549091161515610120820152600090610bb890611577565b905085811015610c305760405162461bcd60e51b815260206004820152603d60248201527f546f6b656e56657374696e673a2063616e6e6f742072656c6561736520746f6b60448201527f656e732c206e6f7420656e6f7567682076657374656420746f6b656e7300000060648201526084016103f5565b6007840154610c3f9087611514565b600785015583546004546101009091046001600160a01b031690610c63908861165a565b600455610c9a6001600160a01b037f0000000000000000000000000000000000000000000000000000000000000000168289611520565b505060018055505050505050565b6000546001600160a01b03163314610cd25760405162461bcd60e51b81526004016103f590611bd8565b600080546040516001600160a01b03909116907f8be0079c531659141344cd1fd0a4f28419497f9722a3daafe3b4186f6b6457e0908390a3600080546001600160a01b0319169055565b610d2461185b565b6001600160a01b03821660009081526005602052604081205460039190610d539085906102b390600190611c3c565b81526020808201929092526040908101600020815161014081018352815460ff808216151583526001600160a01b036101009283900416958301959095526001830154938201939093526002820154606082015260038201546080820152600482015460a082015260058201548416151560c0820152600682015460e082015260078201549281019290925260080154909116151561012082015292915050565b6000546001600160a01b03163314610e1e5760405162461bcd60e51b81526004016103f590611bd8565b60005b8151811015610f1657610f04828281518110610e3f57610e3f611c53565b602002602001015160000151838381518110610e5d57610e5d611c53565b602002602001015160200151848481518110610e7b57610e7b611c53565b602002602001015160400151858581518110610e9957610e99611c53565b602002602001015160600151868681518110610eb757610eb7611c53565b602002602001015160800151878781518110610ed557610ed5611c53565b602002602001015160a00151888881518110610ef357610ef3611c53565b602002602001015160c001516103cb565b80610f0e81611c69565b915050610e21565b5050565b6040516bffffffffffffffffffffffff19606084901b1660208201526034810182905260009060540160405160208183030381529060405280519060200120905092915050565b600480546040516370a0823160e01b81523092810192909252600091610ffd91906001600160a01b037f000000000000000000000000000000000000000000000000000000000000000016906370a0823190602401602060405180830381865afa158015610fd3573d6000803e3d6000fd5b505050506040513d601f19601f82011682018060405250810190610ff79190611c0d565b9061165a565b905090565b61100a61185b565b50600090815260036020818152604092839020835161014081018552815460ff808216151583526001600160a01b0361010092839004169483019490945260018301549582019590955260028201546060820152928101546080840152600481015460a084015260058101548216151560c0840152600681015460e0840152600781015493830193909352600890920154909116151561012082015290565b6000546001600160a01b031633146110d35760405162461bcd60e51b81526004016103f590611bd8565b600081815260036020526040902054819060ff1615156001146110f557600080fd5b60008181526003602052604090206008015460ff161561111457600080fd5b6000828152600360205260409020600581015460ff16151560011461118a5760405162461bcd60e51b815260206004820152602660248201527f546f6b656e56657374696e673a2076657374696e67206973206e6f74207265766044820152656f6361626c6560d01b60648201526084016103f5565b6040805161014081018252825460ff808216151583526001600160a01b03610100928390041660208401526001850154938301939093526002840154606083015260038401546080830152600484015460a083015260058401548316151560c0830152600684015460e08301526007840154908201526008830154909116151561012082015260009061121c90611577565b9050801561122e5761122e84826109d8565b600061124b8360070154846006015461165a90919063ffffffff16565b60045490915061125b908261165a565b6004555050600801805460ff191660011790555050565b600081815260036020526040812054829060ff16151560011461129457600080fd5b60008181526003602052604090206008015460ff16156112b357600080fd5b600083815260036020818152604092839020835161014081018552815460ff808216151583526001600160a01b0361010092839004169483019490945260018301549582019590955260028201546060820152928101546080840152600481015460a084015260058101548216151560c0840152600681015460e0840152600781015493830193909352600883015416151561012082015261135490611577565b949350505050565b6000546001600160a01b031633146113865760405162461bcd60e51b81526004016103f590611bd8565b6001600160a01b0381166113eb5760405162461bcd60e51b815260206004820152602660248201527f4f776e61626c653a206e6577206f776e657220697320746865207a65726f206160448201526564647265737360d01b60648201526084016103f5565b600080546040516001600160a01b03808516939216917f8be0079c531659141344cd1fd0a4f28419497f9722a3daafe3b4186f6b6457e091a3600080546001600160a01b0319166001600160a01b0392909216919091179055565b61144e61185b565b61145b6103068484610f1a565b9392505050565b6001600160a01b038116600090815260056020526040812054611486908390610f1a565b92915050565b600061149760025490565b82106114ef5760405162461bcd60e51b815260206004820152602160248201527f546f6b656e56657374696e673a20696e646578206f7574206f6620626f756e646044820152607360f81b60648201526084016103f5565b6002828154811061150257611502611c53565b90600052602060002001549050919050565b600061145b8284611c84565b604080516001600160a01b038416602482015260448082018490528251808303909101815260649091019091526020810180516001600160e01b031663a9059cbb60e01b179052611572908490611666565b505050565b60408101516000904290811080611595575061012083015115156001145b156115a35750600092915050565b608083015160608401516115b691611514565b81106115d05761010083015160e084015161145b9161165a565b60006115e984606001518361165a90919063ffffffff16565b60a085015190915060006115fd8383611738565b9050600061160b8284611744565b90506000611634886080015161162e848b60e0015161174490919063ffffffff16565b90611738565b905061164e8861010001518261165a90919063ffffffff16565b98975050505050505050565b600061145b8284611c3c565b60006116bb826040518060400160405280602081526020017f5361666545524332303a206c6f772d6c6576656c2063616c6c206661696c6564815250856001600160a01b03166117509092919063ffffffff16565b80519091501561157257808060200190518101906116d99190611c9c565b6115725760405162461bcd60e51b815260206004820152602a60248201527f5361666545524332303a204552433230206f7065726174696f6e20646964206e6044820152691bdd081cdd58d8d9595960b21b60648201526084016103f5565b600061145b8284611cb9565b600061145b8284611cdb565b6060611354848460008585843b6117a95760405162461bcd60e51b815260206004820152601d60248201527f416464726573733a2063616c6c20746f206e6f6e2d636f6e747261637400000060448201526064016103f5565b600080866001600160a01b031685876040516117c59190611d2a565b60006040518083038185875af1925050503d8060008114611802576040519150601f19603f3d011682016040523d82523d6000602084013e611807565b606091505b5091509150611817828286611822565b979650505050505050565b6060831561183157508161145b565b8251156118415782518084602001fd5b8160405162461bcd60e51b81526004016103f59190611d46565b60405180610140016040528060001515815260200160006001600160a01b031681526020016000815260200160008152602001600081526020016000815260200160001515815260200160008152602001600081526020016000151581525090565b80356001600160a01b03811681146118d457600080fd5b919050565b80151581146118e757600080fd5b50565b600080600080600080600060e0888a03121561190557600080fd5b61190e886118bd565b96506020880135955060408801359450606088013593506080880135925060a088013561193a816118d9565b8092505060c0880135905092959891949750929550565b60006020828403121561196357600080fd5b5035919050565b60006020828403121561197c57600080fd5b61145b826118bd565b6000806040838503121561199857600080fd5b50508035926020909101359150565b815115158152610140810160208301516119cc60208401826001600160a01b03169052565b5060408301516040830152606083015160608301526080830151608083015260a083015160a083015260c0830151611a0860c084018215159052565b5060e083810151908301526101008084015190830152610120928301511515929091019190915290565b634e487b7160e01b600052604160045260246000fd5b60405160e0810167ffffffffffffffff81118282101715611a6b57611a6b611a32565b60405290565b604051601f8201601f1916810167ffffffffffffffff81118282101715611a9a57611a9a611a32565b604052919050565b60006020808385031215611ab557600080fd5b823567ffffffffffffffff80821115611acd57600080fd5b818501915085601f830112611ae157600080fd5b813581811115611af357611af3611a32565b611b01848260051b01611a71565b818152848101925060e0918202840185019188831115611b2057600080fd5b938501935b82851015611ba25780858a031215611b3d5760008081fd5b611b45611a48565b611b4e866118bd565b8152858701358782015260408087013590820152606080870135908201526080808701359082015260a080870135611b85816118d9565b9082015260c0868101359082015284529384019392850192611b25565b50979650505050505050565b60008060408385031215611bc157600080fd5b611bca836118bd565b946020939093013593505050565b6020808252818101527f4f776e61626c653a2063616c6c6572206973206e6f7420746865206f776e6572604082015260600190565b600060208284031215611c1f57600080fd5b5051919050565b634e487b7160e01b600052601160045260246000fd5b600082821015611c4e57611c4e611c26565b500390565b634e487b7160e01b600052603260045260246000fd5b6000600019821415611c7d57611c7d611c26565b5060010190565b60008219821115611c9757611c97611c26565b500190565b600060208284031215611cae57600080fd5b815161145b816118d9565b600082611cd657634e487b7160e01b600052601260045260246000fd5b500490565b6000816000190483118215151615611cf557611cf5611c26565b500290565b60005b83811015611d15578181015183820152602001611cfd565b83811115611d24576000848401525b50505050565b60008251611d3c818460208701611cfa565b9190910192915050565b6020815260008251806020840152611d65816040850160208701611cfa565b601f01601f1916919091016040019291505056fea26469706673582212209d4cc8b157c4c12efb07bbe53a79379a192789cfeccbb93428495eeca43e906864736f6c634300080b0033",
  "linkReferences": {},
  "deployedLinkReferences": {}
}