{
  "_format": "hh-sol-artifact-1",
  "contractName": "Lock",
  "sourceName": "contracts/Lock.sol",
  "abi": [
    {
      "anonymous": false,
      "inputs": [
        {
          "indexed": false,
          "internalType": "uint8",
          "name": "version",
          "type": "uint8"
        }
      ],
      "name": "Initialized",
      "type": "event"
    },
    {
      "anonymous": false,
      "inputs": [
        {
          "indexed": false,
          "internalType": "address",
          "name": "tokenAddress",
          "type": "address"
        },
        {
          "indexed": false,
          "internalType": "address",
          "name": "sender",
          "type": "address"
        },
        {
          "indexed": false,
          "internalType": "uint256",
          "name": "amount",
          "type": "uint256"
        }
      ],
      "name": "TAppTopup",
      "type": "event"
    },
    {
      "anonymous": false,
      "inputs": [
        {
          "indexed": false,
          "internalType": "address",
          "name": "tokenAddress",
          "type": "address"
        },
        {
          "indexed": false,
          "internalType": "address",
          "name": "recipient",
          "type": "address"
        },
        {
          "indexed": false,
          "internalType": "uint256",
          "name": "amount",
          "type": "uint256"
        },
        {
          "indexed": false,
          "internalType": "uint256[]",
          "name": "signerIndex",
          "type": "uint256[]"
        }
      ],
      "name": "TAppWithdraw",
      "type": "event"
    },
    {
      "inputs": [],
      "name": "Maintainer",
      "outputs": [
        {
          "internalType": "contract IMaintainer",
          "name": "",
          "type": "address"
        }
      ],
      "stateMutability": "view",
      "type": "function"
    },
    {
      "inputs": [
        {
          "internalType": "address",
          "name": "token",
          "type": "address"
        },
        {
          "internalType": "uint256",
          "name": "amount",
          "type": "uint256"
        }
      ],
      "name": "Topup",
      "outputs": [],
      "stateMutability": "nonpayable",
      "type": "function"
    },
    {
      "inputs": [
        {
          "internalType": "address",
          "name": "token",
          "type": "address"
        },
        {
          "internalType": "uint256",
          "name": "amount",
          "type": "uint256"
        },
        {
          "internalType": "uint256",
          "name": "deadline",
          "type": "uint256"
        },
        {
          "internalType": "uint8",
          "name": "v",
          "type": "uint8"
        },
        {
          "internalType": "bytes32",
          "name": "r",
          "type": "bytes32"
        },
        {
          "internalType": "bytes32",
          "name": "s",
          "type": "bytes32"
        },
        {
          "internalType": "bool",
          "name": "approveMax",
          "type": "bool"
        }
      ],
      "name": "TopupWithPermit",
      "outputs": [],
      "stateMutability": "nonpayable",
      "type": "function"
    },
    {
      "inputs": [],
      "name": "UNLOCK_TYPEHASH",
      "outputs": [
        {
          "internalType": "bytes32",
          "name": "",
          "type": "bytes32"
        }
      ],
      "stateMutability": "view",
      "type": "function"
    },
    {
      "inputs": [
        {
          "components": [
            {
              "internalType": "address",
              "name": "token",
              "type": "address"
            },
            {
              "internalType": "address",
              "name": "recipient",
              "type": "address"
            },
            {
              "internalType": "uint256",
              "name": "amount",
              "type": "uint256"
            }
          ],
          "internalType": "struct Lock.UnlockRecord[]",
          "name": "records",
          "type": "tuple[]"
        },
        {
          "internalType": "uint256",
          "name": "nonce",
          "type": "uint256"
        },
        {
          "internalType": "bytes",
          "name": "signatures",
          "type": "bytes"
        }
      ],
      "name": "Withdraw",
      "outputs": [],
      "stateMutability": "nonpayable",
      "type": "function"
    },
    {
      "inputs": [
        {
          "components": [
            {
              "internalType": "address",
              "name": "token",
              "type": "address"
            },
            {
              "internalType": "address",
              "name": "recipient",
              "type": "address"
            },
            {
              "internalType": "uint256",
              "name": "amount",
              "type": "uint256"
            }
          ],
          "internalType": "struct Lock.UnlockRecord[]",
          "name": "records",
          "type": "tuple[]"
        },
        {
          "internalType": "uint256",
          "name": "nonce",
          "type": "uint256"
        }
      ],
      "name": "getWithdrawMsgHash",
      "outputs": [
        {
          "internalType": "bytes32",
          "name": "msgHash",
          "type": "bytes32"
        }
      ],
      "stateMutability": "view",
      "type": "function"
    },
    {
      "inputs": [
        {
          "internalType": "contract IMaintainer",
          "name": "_IMaintainer",
          "type": "address"
        }
      ],
      "name": "initialize",
      "outputs": [],
      "stateMutability": "nonpayable",
      "type": "function"
    },
    {
      "inputs": [],
      "name": "latestUnlockNonce_",
      "outputs": [
        {
          "internalType": "uint256",
          "name": "",
          "type": "uint256"
        }
      ],
      "stateMutability": "view",
      "type": "function"
    }
  ],
  "bytecode": "0x608060405234801561001057600080fd5b50611006806100206000396000f3fe608060405234801561001057600080fd5b50600436106100885760003560e01c8063c1fac0e71161005b578063c1fac0e7146100e4578063c4d66de814610115578063e421542514610128578063fa9c67f31461013b57600080fd5b806301c979741461008d5780634463b886146100a25780637b5f5795146100c85780638c8ca33c146100db575b600080fd5b6100a061009b366004610af2565b610144565b005b6100b56100b0366004610b96565b610316565b6040519081526020015b60405180910390f35b6100a06100d6366004610c08565b610403565b6100b560025481565b6000546100fd906201000090046001600160a01b031681565b6040516001600160a01b0390911681526020016100bf565b6100a0610123366004610c80565b610554565b6100a0610136366004610c9d565b6106a5565b6100b560015481565b82600154146101915760405162461bcd60e51b81526020600482015260146024820152731d5b9b1bd8dac81b9bdb98d9481a5b9d985b1a5960621b60448201526064015b60405180910390fd5b61019c836001610750565b600155606060006101ae878787610316565b600054604051622f5df560e01b81529192506201000090046001600160a01b031690622f5df5906101e790849088908890600401610cc9565b600060405180830381865afa158015610204573d6000803e3d6000fd5b505050506040513d6000823e601f3d908101601f1916820160405261022c9190810190610d15565b915060005b8681101561030c573688888381811061024c5761024c610dd3565b905060600201905080604001356000141561026757506102fa565b61029c61027a6040830160208401610c80565b604083013561028c6020850185610c80565b6001600160a01b031691906107b4565b7fb5e893d40395255619da24b3fac93885df4786a7e1c723ce531f4e5549bbfed96102ca6020830183610c80565b6102da6040840160208501610c80565b8360400135876040516102f09493929190610de9565b60405180910390a1505b8061030481610e69565b915050610231565b5050505050505050565b60008060029054906101000a90046001600160a01b03166001600160a01b0316633644e5156040518163ffffffff1660e01b8152600401602060405180830381865afa15801561036a573d6000803e3d6000fd5b505050506040513d601f19601f8201168201806040525081019061038e9190610e84565b6002548585856040516020016103a79493929190610e9d565b604051602081830303815290604052805190602001206040516020016103e492919061190160f01b81526002810192909252602282015260420190565b6040516020818303038152906040528051906020012090509392505050565b600086116104535760405162461bcd60e51b815260206004820152601f60248201527f616d6f756e742073686f756c642062652067726561746572207468616e2030006044820152606401610188565b6000816104605786610464565b6000195b60405163d505accf60e01b8152336004820152306024820152604481018290526064810188905260ff8716608482015260a4810186905260c481018590529091506001600160a01b0389169063d505accf9060e401600060405180830381600087803b1580156104d357600080fd5b505af11580156104e7573d6000803e3d6000fd5b50610501925050506001600160a01b03891633308a61081c565b604080516001600160a01b038a1681523360208201529081018890527ffe65b8bb545157ecc357d4845595246d1cec08508956c70a5ec3ce2a516d39ae9060600160405180910390a15050505050505050565b600054610100900460ff16158080156105745750600054600160ff909116105b8061058e5750303b15801561058e575060005460ff166001145b6105f15760405162461bcd60e51b815260206004820152602e60248201527f496e697469616c697a61626c653a20636f6e747261637420697320616c72656160448201526d191e481a5b9a5d1a585b1a5e995960921b6064820152608401610188565b6000805460ff191660011790558015610614576000805461ff0019166101001790555b6000805462010000600160b01b031916620100006001600160a01b038516021790557f5253f7b4a8f4dd880ba7d6c331df1a0f82b0eca34519c916efd07fa7dc32eea260025580156106a1576000805461ff0019169055604051600181527f7f26b83ff96e1f2b6a682f133852f6798a09c465da95921460cefb3847402498906020015b60405180910390a15b5050565b600081116106f55760405162461bcd60e51b815260206004820152601f60248201527f616d6f756e742073686f756c642062652067726561746572207468616e2030006044820152606401610188565b61070a6001600160a01b03831633308461081c565b604080516001600160a01b03841681523360208201529081018290527ffe65b8bb545157ecc357d4845595246d1cec08508956c70a5ec3ce2a516d39ae90606001610698565b600061075c8284610f20565b9050828110156107ae5760405162461bcd60e51b815260206004820152601960248201527f4f766572666c6f7720647572696e67206164646974696f6e2e000000000000006044820152606401610188565b92915050565b6040516001600160a01b03831660248201526044810182905261081790849063a9059cbb60e01b906064015b60408051601f198184030181529190526020810180516001600160e01b03166001600160e01b03199093169290921790915261085a565b505050565b6040516001600160a01b03808516602483015283166044820152606481018290526108549085906323b872dd60e01b906084016107e0565b50505050565b60006108af826040518060400160405280602081526020017f5361666545524332303a206c6f772d6c6576656c2063616c6c206661696c6564815250856001600160a01b031661092c9092919063ffffffff16565b80519091501561081757808060200190518101906108cd9190610f38565b6108175760405162461bcd60e51b815260206004820152602a60248201527f5361666545524332303a204552433230206f7065726174696f6e20646964206e6044820152691bdd081cdd58d8d9595960b21b6064820152608401610188565b606061093b8484600085610945565b90505b9392505050565b6060824710156109a65760405162461bcd60e51b815260206004820152602660248201527f416464726573733a20696e73756666696369656e742062616c616e636520666f6044820152651c8818d85b1b60d21b6064820152608401610188565b843b6109f45760405162461bcd60e51b815260206004820152601d60248201527f416464726573733a2063616c6c20746f206e6f6e2d636f6e74726163740000006044820152606401610188565b600080866001600160a01b03168587604051610a109190610f81565b60006040518083038185875af1925050503d8060008114610a4d576040519150601f19603f3d011682016040523d82523d6000602084013e610a52565b606091505b5091509150610a62828286610a6d565b979650505050505050565b60608315610a7c57508161093e565b825115610a8c5782518084602001fd5b8160405162461bcd60e51b81526004016101889190610f9d565b60008083601f840112610ab857600080fd5b50813567ffffffffffffffff811115610ad057600080fd5b602083019150836020606083028501011115610aeb57600080fd5b9250929050565b600080600080600060608688031215610b0a57600080fd5b853567ffffffffffffffff80821115610b2257600080fd5b610b2e89838a01610aa6565b9097509550602088013594506040880135915080821115610b4e57600080fd5b818801915088601f830112610b6257600080fd5b813581811115610b7157600080fd5b896020828501011115610b8357600080fd5b9699959850939650602001949392505050565b600080600060408486031215610bab57600080fd5b833567ffffffffffffffff811115610bc257600080fd5b610bce86828701610aa6565b909790965060209590950135949350505050565b6001600160a01b0381168114610bf757600080fd5b50565b8015158114610bf757600080fd5b600080600080600080600060e0888a031215610c2357600080fd5b8735610c2e81610be2565b96506020880135955060408801359450606088013560ff81168114610c5257600080fd5b93506080880135925060a0880135915060c0880135610c7081610bfa565b8091505092959891949750929550565b600060208284031215610c9257600080fd5b813561093e81610be2565b60008060408385031215610cb057600080fd5b8235610cbb81610be2565b946020939093013593505050565b83815260406020820152816040820152818360608301376000818301606090810191909152601f909201601f1916010192915050565b634e487b7160e01b600052604160045260246000fd5b60006020808385031215610d2857600080fd5b825167ffffffffffffffff80821115610d4057600080fd5b818501915085601f830112610d5457600080fd5b815181811115610d6657610d66610cff565b8060051b604051601f19603f83011681018181108582111715610d8b57610d8b610cff565b604052918252848201925083810185019188831115610da957600080fd5b938501935b82851015610dc757845184529385019392850192610dae565b98975050505050505050565b634e487b7160e01b600052603260045260246000fd5b6001600160a01b03858116825284166020808301919091526040820184905260806060830181905283519083018190526000918481019160a085019190845b81811015610e4457845184529382019392820192600101610e28565b50919998505050505050505050565b634e487b7160e01b600052601160045260246000fd5b6000600019821415610e7d57610e7d610e53565b5060010190565b600060208284031215610e9657600080fd5b5051919050565b8481526060602080830182905282820185905260009190869060808501845b88811015610f09578335610ecf81610be2565b6001600160a01b0390811683528484013590610eea82610be2565b1682840152604084810135908301529284019290840190600101610ebc565b508094505050505082604083015295945050505050565b60008219821115610f3357610f33610e53565b500190565b600060208284031215610f4a57600080fd5b815161093e81610bfa565b60005b83811015610f70578181015183820152602001610f58565b838111156108545750506000910152565b60008251610f93818460208701610f55565b9190910192915050565b6020815260008251806020840152610fbc816040850160208701610f55565b601f01601f1916919091016040019291505056fea26469706673582212201dd547a53e3233cffc124cb0e4fcca6fe8684adcdb68d3f74d67f393fec07a1964736f6c634300080b0033",
  "linkReferences": {},
  "deployedLinkReferences": {}
}