{
  "_format": "hh-sol-artifact-1",
  "contractName": "Storage",
  "sourceName": "contracts/Storage.sol",
  "abi": [
    {
      "anonymous": false,
      "inputs": [
        {
          "components": [
            {
              "internalType": "string",
              "name": "tappstore_startup_nodes_ip",
              "type": "string"
            },
            {
              "internalType": "uint256",
              "name": "cml_id",
              "type": "uint256"
            }
          ],
          "indexed": false,
          "internalType": "struct Storage.tapps_node[]",
          "name": "addList",
          "type": "tuple[]"
        },
        {
          "indexed": false,
          "internalType": "string[]",
          "name": "removeIPList",
          "type": "string[]"
        },
        {
          "indexed": false,
          "internalType": "uint256[]",
          "name": "signerIndex",
          "type": "uint256[]"
        }
      ],
      "name": "ChangeTappStoreHosts",
      "type": "event"
    },
    {
      "anonymous": false,
      "inputs": [
        {
          "indexed": false,
          "internalType": "uint8",
          "name": "version",
          "type": "uint8"
        }
      ],
      "name": "Initialized",
      "type": "event"
    },
    {
      "anonymous": false,
      "inputs": [
        {
          "indexed": true,
          "internalType": "address",
          "name": "previousOwner",
          "type": "address"
        },
        {
          "indexed": true,
          "internalType": "address",
          "name": "newOwner",
          "type": "address"
        }
      ],
      "name": "OwnershipTransferred",
      "type": "event"
    },
    {
      "anonymous": false,
      "inputs": [
        {
          "indexed": false,
          "internalType": "string[]",
          "name": "bootstrapIps",
          "type": "string[]"
        },
        {
          "indexed": false,
          "internalType": "uint256[]",
          "name": "signerIndex",
          "type": "uint256[]"
        }
      ],
      "name": "RegisterBootstrapIps",
      "type": "event"
    },
    {
      "anonymous": false,
      "inputs": [
        {
          "indexed": false,
          "internalType": "address[]",
          "name": "issuers",
          "type": "address[]"
        },
        {
          "indexed": false,
          "internalType": "bytes[]",
          "name": "issuerCa",
          "type": "bytes[]"
        },
        {
          "indexed": false,
          "internalType": "uint256[]",
          "name": "signerIndex",
          "type": "uint256[]"
        }
      ],
      "name": "RegisterIssuers",
      "type": "event"
    },
    {
      "anonymous": false,
      "inputs": [
        {
          "indexed": false,
          "internalType": "string[]",
          "name": "bootstrapIps",
          "type": "string[]"
        },
        {
          "indexed": false,
          "internalType": "uint256[]",
          "name": "signerIndex",
          "type": "uint256[]"
        }
      ],
      "name": "RemoveBootstrapIps",
      "type": "event"
    },
    {
      "anonymous": false,
      "inputs": [
        {
          "indexed": false,
          "internalType": "address[]",
          "name": "issuers",
          "type": "address[]"
        },
        {
          "indexed": false,
          "internalType": "uint256[]",
          "name": "signerIndex",
          "type": "uint256[]"
        }
      ],
      "name": "RemoveIssuers",
      "type": "event"
    },
    {
      "anonymous": false,
      "inputs": [
        {
          "indexed": false,
          "internalType": "uint256[]",
          "name": "tappIds",
          "type": "uint256[]"
        },
        {
          "indexed": false,
          "internalType": "uint256[]",
          "name": "signerIndex",
          "type": "uint256[]"
        }
      ],
      "name": "RemoveTapps",
      "type": "event"
    },
    {
      "anonymous": false,
      "inputs": [
        {
          "indexed": false,
          "internalType": "uint256[]",
          "name": "tappIds",
          "type": "uint256[]"
        },
        {
          "components": [
            {
              "internalType": "string",
              "name": "name",
              "type": "string"
            },
            {
              "internalType": "string",
              "name": "latest_cid",
              "type": "string"
            }
          ],
          "indexed": false,
          "internalType": "struct Storage.tapp[]",
          "name": "tappDetails",
          "type": "tuple[]"
        },
        {
          "indexed": false,
          "internalType": "uint256[]",
          "name": "signerIndex",
          "type": "uint256[]"
        }
      ],
      "name": "UpsertTapps",
      "type": "event"
    },
    {
      "inputs": [],
      "name": "CHANGE_TAPPSTOREHOST_TYPEHASH",
      "outputs": [
        {
          "internalType": "bytes32",
          "name": "",
          "type": "bytes32"
        }
      ],
      "stateMutability": "view",
      "type": "function"
    },
    {
      "inputs": [
        {
          "internalType": "uint256",
          "name": "",
          "type": "uint256"
        }
      ],
      "name": "Issuers",
      "outputs": [
        {
          "internalType": "address",
          "name": "",
          "type": "address"
        }
      ],
      "stateMutability": "view",
      "type": "function"
    },
    {
      "inputs": [
        {
          "internalType": "address",
          "name": "",
          "type": "address"
        }
      ],
      "name": "IssuersCA",
      "outputs": [
        {
          "internalType": "bytes",
          "name": "",
          "type": "bytes"
        }
      ],
      "stateMutability": "view",
      "type": "function"
    },
    {
      "inputs": [],
      "name": "Maintainer",
      "outputs": [
        {
          "internalType": "contract IMaintainer",
          "name": "",
          "type": "address"
        }
      ],
      "stateMutability": "view",
      "type": "function"
    },
    {
      "inputs": [],
      "name": "REGISTER_BOOTSTRAP_IPS_TYPEHASH",
      "outputs": [
        {
          "internalType": "bytes32",
          "name": "",
          "type": "bytes32"
        }
      ],
      "stateMutability": "view",
      "type": "function"
    },
    {
      "inputs": [],
      "name": "REGISTER_ISSUERS_TYPEHASH",
      "outputs": [
        {
          "internalType": "bytes32",
          "name": "",
          "type": "bytes32"
        }
      ],
      "stateMutability": "view",
      "type": "function"
    },
    {
      "inputs": [],
      "name": "REMOVE_BOOTSTRAP_IPS_TYPEHASH",
      "outputs": [
        {
          "internalType": "bytes32",
          "name": "",
          "type": "bytes32"
        }
      ],
      "stateMutability": "view",
      "type": "function"
    },
    {
      "inputs": [],
      "name": "REMOVE_ISSUERS_TYPEHASH",
      "outputs": [
        {
          "internalType": "bytes32",
          "name": "",
          "type": "bytes32"
        }
      ],
      "stateMutability": "view",
      "type": "function"
    },
    {
      "inputs": [],
      "name": "REMOVE_TAPPS_TYPEHASH",
      "outputs": [
        {
          "internalType": "bytes32",
          "name": "",
          "type": "bytes32"
        }
      ],
      "stateMutability": "view",
      "type": "function"
    },
    {
      "inputs": [
        {
          "internalType": "uint256",
          "name": "",
          "type": "uint256"
        }
      ],
      "name": "Tapps",
      "outputs": [
        {
          "internalType": "string",
          "name": "name",
          "type": "string"
        },
        {
          "internalType": "string",
          "name": "latest_cid",
          "type": "string"
        }
      ],
      "stateMutability": "view",
      "type": "function"
    },
    {
      "inputs": [
        {
          "internalType": "uint256",
          "name": "",
          "type": "uint256"
        }
      ],
      "name": "Tappstore_startup_node_ips",
      "outputs": [
        {
          "internalType": "string",
          "name": "tappstore_startup_nodes_ip",
          "type": "string"
        },
        {
          "internalType": "uint256",
          "name": "cml_id",
          "type": "uint256"
        }
      ],
      "stateMutability": "view",
      "type": "function"
    },
    {
      "inputs": [],
      "name": "UPSERT_TAPPS_TYPEHASH",
      "outputs": [
        {
          "internalType": "bytes32",
          "name": "",
          "type": "bytes32"
        }
      ],
      "stateMutability": "view",
      "type": "function"
    },
    {
      "inputs": [
        {
          "components": [
            {
              "internalType": "string",
              "name": "tappstore_startup_nodes_ip",
              "type": "string"
            },
            {
              "internalType": "uint256",
              "name": "cml_id",
              "type": "uint256"
            }
          ],
          "internalType": "struct Storage.tapps_node[]",
          "name": "addList",
          "type": "tuple[]"
        },
        {
          "internalType": "string[]",
          "name": "removeIPList",
          "type": "string[]"
        },
        {
          "internalType": "uint256",
          "name": "nonce",
          "type": "uint256"
        },
        {
          "internalType": "bytes",
          "name": "signatures",
          "type": "bytes"
        }
      ],
      "name": "changeTappStoreHost",
      "outputs": [],
      "stateMutability": "nonpayable",
      "type": "function"
    },
    {
      "inputs": [
        {
          "internalType": "string",
          "name": "a",
          "type": "string"
        },
        {
          "internalType": "string",
          "name": "b",
          "type": "string"
        }
      ],
      "name": "compareStrings",
      "outputs": [
        {
          "internalType": "bool",
          "name": "",
          "type": "bool"
        }
      ],
      "stateMutability": "pure",
      "type": "function"
    },
    {
      "inputs": [
        {
          "components": [
            {
              "internalType": "string",
              "name": "tappstore_startup_nodes_ip",
              "type": "string"
            },
            {
              "internalType": "uint256",
              "name": "cml_id",
              "type": "uint256"
            }
          ],
          "internalType": "struct Storage.tapps_node[]",
          "name": "addList",
          "type": "tuple[]"
        },
        {
          "internalType": "string[]",
          "name": "removeIPList",
          "type": "string[]"
        },
        {
          "internalType": "uint256",
          "name": "nonce",
          "type": "uint256"
        }
      ],
      "name": "getChangeTappStoreHostMsgHash",
      "outputs": [
        {
          "internalType": "bytes32",
          "name": "msgHash",
          "type": "bytes32"
        }
      ],
      "stateMutability": "view",
      "type": "function"
    },
    {
      "inputs": [
        {
          "internalType": "string[]",
          "name": "bootstrapIps",
          "type": "string[]"
        },
        {
          "internalType": "uint256",
          "name": "nonce",
          "type": "uint256"
        }
      ],
      "name": "getRegisterBootstrapIpsMsgHash",
      "outputs": [
        {
          "internalType": "bytes32",
          "name": "msgHash",
          "type": "bytes32"
        }
      ],
      "stateMutability": "view",
      "type": "function"
    },
    {
      "inputs": [
        {
          "internalType": "address[]",
          "name": "issuers",
          "type": "address[]"
        },
        {
          "internalType": "bytes[]",
          "name": "issuerCa",
          "type": "bytes[]"
        },
        {
          "internalType": "uint256",
          "name": "nonce",
          "type": "uint256"
        }
      ],
      "name": "getRegisterIssuersMsgHash",
      "outputs": [
        {
          "internalType": "bytes32",
          "name": "msgHash",
          "type": "bytes32"
        }
      ],
      "stateMutability": "view",
      "type": "function"
    },
    {
      "inputs": [
        {
          "internalType": "string[]",
          "name": "bootstrapIps",
          "type": "string[]"
        },
        {
          "internalType": "uint256",
          "name": "nonce",
          "type": "uint256"
        }
      ],
      "name": "getRemoveBootstrapIpsMsgHash",
      "outputs": [
        {
          "internalType": "bytes32",
          "name": "msgHash",
          "type": "bytes32"
        }
      ],
      "stateMutability": "view",
      "type": "function"
    },
    {
      "inputs": [
        {
          "internalType": "address[]",
          "name": "issuers",
          "type": "address[]"
        },
        {
          "internalType": "uint256",
          "name": "nonce",
          "type": "uint256"
        }
      ],
      "name": "getRemoveIssuersMsgHash",
      "outputs": [
        {
          "internalType": "bytes32",
          "name": "msgHash",
          "type": "bytes32"
        }
      ],
      "stateMutability": "view",
      "type": "function"
    },
    {
      "inputs": [
        {
          "internalType": "uint256[]",
          "name": "tappIds",
          "type": "uint256[]"
        },
        {
          "internalType": "uint256",
          "name": "nonce",
          "type": "uint256"
        }
      ],
      "name": "getRemoveTappsMsgHash",
      "outputs": [
        {
          "internalType": "bytes32",
          "name": "msgHash",
          "type": "bytes32"
        }
      ],
      "stateMutability": "view",
      "type": "function"
    },
    {
      "inputs": [
        {
          "internalType": "uint256[]",
          "name": "tappIds",
          "type": "uint256[]"
        },
        {
          "components": [
            {
              "internalType": "string",
              "name": "name",
              "type": "string"
            },
            {
              "internalType": "string",
              "name": "latest_cid",
              "type": "string"
            }
          ],
          "internalType": "struct Storage.tapp[]",
          "name": "tappDetails",
          "type": "tuple[]"
        },
        {
          "internalType": "uint256",
          "name": "nonce",
          "type": "uint256"
        }
      ],
      "name": "getUpsertTappsMsgHash",
      "outputs": [
        {
          "internalType": "bytes32",
          "name": "msgHash",
          "type": "bytes32"
        }
      ],
      "stateMutability": "view",
      "type": "function"
    },
    {
      "inputs": [
        {
          "internalType": "contract IMaintainer",
          "name": "_maintainer",
          "type": "address"
        }
      ],
      "name": "initialize",
      "outputs": [],
      "stateMutability": "nonpayable",
      "type": "function"
    },
    {
      "inputs": [],
      "name": "latestChangeTappStoreHostNonce_",
      "outputs": [
        {
          "internalType": "uint256",
          "name": "",
          "type": "uint256"
        }
      ],
      "stateMutability": "view",
      "type": "function"
    },
    {
      "inputs": [],
      "name": "latestRegisterBootstrapIpsNonce_",
      "outputs": [
        {
          "internalType": "uint256",
          "name": "",
          "type": "uint256"
        }
      ],
      "stateMutability": "view",
      "type": "function"
    },
    {
      "inputs": [],
      "name": "latestRegisterIssuersNonce_",
      "outputs": [
        {
          "internalType": "uint256",
          "name": "",
          "type": "uint256"
        }
      ],
      "stateMutability": "view",
      "type": "function"
    },
    {
      "inputs": [],
      "name": "latestRemoveBootstrapIpsNonce_",
      "outputs": [
        {
          "internalType": "uint256",
          "name": "",
          "type": "uint256"
        }
      ],
      "stateMutability": "view",
      "type": "function"
    },
    {
      "inputs": [],
      "name": "latestRemoveIssuersNonce_",
      "outputs": [
        {
          "internalType": "uint256",
          "name": "",
          "type": "uint256"
        }
      ],
      "stateMutability": "view",
      "type": "function"
    },
    {
      "inputs": [],
      "name": "latestRemoveTappsNonce_",
      "outputs": [
        {
          "internalType": "uint256",
          "name": "",
          "type": "uint256"
        }
      ],
      "stateMutability": "view",
      "type": "function"
    },
    {
      "inputs": [],
      "name": "latestUpsertTappsNonce_",
      "outputs": [
        {
          "internalType": "uint256",
          "name": "",
          "type": "uint256"
        }
      ],
      "stateMutability": "view",
      "type": "function"
    },
    {
      "inputs": [],
      "name": "listTappstoreStartupNodeIps",
      "outputs": [
        {
          "components": [
            {
              "internalType": "string",
              "name": "tappstore_startup_nodes_ip",
              "type": "string"
            },
            {
              "internalType": "uint256",
              "name": "cml_id",
              "type": "uint256"
            }
          ],
          "internalType": "struct Storage.tapps_node[]",
          "name": "",
          "type": "tuple[]"
        }
      ],
      "stateMutability": "view",
      "type": "function"
    },
    {
      "inputs": [
        {
          "internalType": "uint256",
          "name": "",
          "type": "uint256"
        }
      ],
      "name": "network_bootstrap_ips",
      "outputs": [
        {
          "internalType": "string",
          "name": "",
          "type": "string"
        }
      ],
      "stateMutability": "view",
      "type": "function"
    },
    {
      "inputs": [],
      "name": "owner",
      "outputs": [
        {
          "internalType": "address",
          "name": "",
          "type": "address"
        }
      ],
      "stateMutability": "view",
      "type": "function"
    },
    {
      "inputs": [
        {
          "internalType": "string[]",
          "name": "bootstrapIps",
          "type": "string[]"
        },
        {
          "internalType": "uint256",
          "name": "nonce",
          "type": "uint256"
        },
        {
          "internalType": "bytes",
          "name": "signatures",
          "type": "bytes"
        }
      ],
      "name": "registerBootstrapIps",
      "outputs": [],
      "stateMutability": "nonpayable",
      "type": "function"
    },
    {
      "inputs": [
        {
          "internalType": "address[]",
          "name": "issuers",
          "type": "address[]"
        },
        {
          "internalType": "bytes[]",
          "name": "issuerCa",
          "type": "bytes[]"
        },
        {
          "internalType": "uint256",
          "name": "nonce",
          "type": "uint256"
        },
        {
          "internalType": "bytes",
          "name": "signatures",
          "type": "bytes"
        }
      ],
      "name": "registerIssuers",
      "outputs": [],
      "stateMutability": "nonpayable",
      "type": "function"
    },
    {
      "inputs": [
        {
          "internalType": "string[]",
          "name": "bootstrapIps",
          "type": "string[]"
        },
        {
          "internalType": "uint256",
          "name": "nonce",
          "type": "uint256"
        },
        {
          "internalType": "bytes",
          "name": "signatures",
          "type": "bytes"
        }
      ],
      "name": "removeBootstrapIps",
      "outputs": [],
      "stateMutability": "nonpayable",
      "type": "function"
    },
    {
      "inputs": [
        {
          "internalType": "address[]",
          "name": "issuers",
          "type": "address[]"
        },
        {
          "internalType": "uint256",
          "name": "nonce",
          "type": "uint256"
        },
        {
          "internalType": "bytes",
          "name": "signatures",
          "type": "bytes"
        }
      ],
      "name": "removeIssuers",
      "outputs": [],
      "stateMutability": "nonpayable",
      "type": "function"
    },
    {
      "inputs": [
        {
          "internalType": "uint256[]",
          "name": "tappIds",
          "type": "uint256[]"
        },
        {
          "internalType": "uint256",
          "name": "nonce",
          "type": "uint256"
        },
        {
          "internalType": "bytes",
          "name": "signatures",
          "type": "bytes"
        }
      ],
      "name": "removeTapps",
      "outputs": [],
      "stateMutability": "nonpayable",
      "type": "function"
    },
    {
      "inputs": [],
      "name": "renounceOwnership",
      "outputs": [],
      "stateMutability": "nonpayable",
      "type": "function"
    },
    {
      "inputs": [
        {
          "internalType": "address",
          "name": "newOwner",
          "type": "address"
        }
      ],
      "name": "transferOwnership",
      "outputs": [],
      "stateMutability": "nonpayable",
      "type": "function"
    },
    {
      "inputs": [
        {
          "internalType": "uint256[]",
          "name": "tappIds",
          "type": "uint256[]"
        },
        {
          "components": [
            {
              "internalType": "string",
              "name": "name",
              "type": "string"
            },
            {
              "internalType": "string",
              "name": "latest_cid",
              "type": "string"
            }
          ],
          "internalType": "struct Storage.tapp[]",
          "name": "tappDetails",
          "type": "tuple[]"
        },
        {
          "internalType": "uint256",
          "name": "nonce",
          "type": "uint256"
        },
        {
          "internalType": "bytes",
          "name": "signatures",
          "type": "bytes"
        }
      ],
      "name": "upsertTapps",
      "outputs": [],
      "stateMutability": "nonpayable",
      "type": "function"
    }
  ],
  "bytecode": "0x608060405234801561001057600080fd5b50613463806100206000396000f3fe608060405234801561001057600080fd5b50600436106102485760003560e01c8063865face71161013b578063bed34bba116100b8578063deca98c21161007c578063deca98c2146104d1578063e7d09b36146104da578063ef43d6c7146104e3578063f2fde38b146104ec578063fe54cd34146104ff57600080fd5b8063bed34bba1461046c578063c1fac0e71461048f578063c4d66de8146104a2578063d86feb4f146104b5578063db9670e7146104be57600080fd5b8063ae2f93b0116100ff578063ae2f93b014610409578063b27c402714610412578063b5b9d8a214610425578063b676732e14610438578063b9aa47b81461045957600080fd5b8063865face7146103ca5780638da5cb5b146103d35780639074306f146103e4578063a6d8962c146103ed578063a7aa5c5c1461040057600080fd5b80635e14923f116101c9578063715018a61161018d578063715018a6146103765780637208af721461037e57806374ae1fac146103915780637a64a698146103a4578063863bf4fd146103b757600080fd5b80635e14923f146102fb5780635fa53adc1461031c57806363929acc1461032f578063688808241461033857806369c843751461034b57600080fd5b80633adb9bea116102105780633adb9bea146102a35780633f275e42146102ac57806341d3c360146102b55780634565dcc0146102c857806355b9936f146102db57600080fd5b806305f54cae1461024d5780630fa59874146102695780631035b8141461027c5780631d3cd0f114610285578063250ff9611461028e575b600080fd5b610256606e5481565b6040519081526020015b60405180910390f35b6102566102773660046126f0565b610514565b610256606c5481565b610256606f5481565b6102a161029c36600461275c565b6105f7565b005b61025660725481565b61025660735481565b6102566102c33660046127c8565b6107cd565b6102566102d636600461288b565b6108ad565b6102ee6102e93660046128c0565b610932565b604051610260919061293c565b61030e61030936600461294f565b6109cc565b604051610260929190612968565b6102a161032a366004612ac3565b610a88565b61025660705481565b6102a1610346366004612c12565b610c77565b61035e61035936600461294f565b610e3e565b6040516001600160a01b039091168152602001610260565b6102a1610e68565b6102a161038c366004612c6d565b610e7c565b61025661039f366004612cc8565b611030565b6102a16103b2366004612cfd565b6110b5565b6102566103c5366004612d35565b6111f0565b61025660715481565b6033546001600160a01b031661035e565b61025660765481565b6102a16103fb366004612d90565b611277565b61025660775481565b61025660785481565b6102ee61042036600461294f565b61140e565b6102a1610433366004612cfd565b611439565b61044b61044636600461294f565b6115ca565b604051610260929190612dc8565b61025661046736600461288b565b6116f6565b61047f61047a366004612df6565b61177b565b6040519015158152602001610260565b606a5461035e906001600160a01b031681565b6102a16104b03660046128c0565b6117d5565b61025660755481565b6102566104cc366004612e59565b6119fe565b61025660745481565b610256606d5481565b610256606b5481565b6102a16104fa3660046128c0565b611a85565b610507611afe565b6040516102609190612f1f565b606a5460408051633644e51560e01b815290516000926001600160a01b031691633644e5159160048083019260209291908290030181865afa15801561055e573d6000803e3d6000fd5b505050506040513d601f19601f820116820180604052508101906105829190612f32565b60725485858560405160200161059b9493929190612fd7565b604051602081830303815290604052805190602001206040516020016105d892919061190160f01b81526002810192909252602282015260420190565b6040516020818303038152906040528051906020012090509392505050565b606c54821461064d5760405162461bcd60e51b815260206004820152601b60248201527f72656d6f766549737375657273206e6f6e636520696e76616c6964000000000060448201526064015b60405180910390fd5b606061065a836001611bf9565b606c556033546001600160a01b031633146106f557600061067b85856107cd565b606a54604051622f5df560e01b81529192506001600160a01b031690622f5df5906106ac9084908790600401613014565b600060405180830381865afa1580156106c9573d6000803e3d6000fd5b505050506040513d6000823e601f3d908101601f191682016040526106f19190810190613035565b9150505b60005b845181101561078d576000610725868381518110610718576107186130c5565b6020026020010151611c57565b905061073081611cbf565b60666000878481518110610746576107466130c5565b60200260200101516001600160a01b03166001600160a01b03168152602001908152602001600020600061077a919061239a565b5080610785816130f1565b9150506106f8565b507f7837759f4cc32c49f537234faa989c9cbbc53dbae82e5304d17bbfa804f38fc884826040516107bf92919061313c565b60405180910390a150505050565b606a5460408051633644e51560e01b815290516000926001600160a01b031691633644e5159160048083019260209291908290030181865afa158015610817573d6000803e3d6000fd5b505050506040513d601f19601f8201168201806040525081019061083b9190612f32565b607354848460405160200161085293929190613161565b6040516020818303038152906040528051906020012060405160200161088f92919061190160f01b81526002810192909252602282015260420190565b60405160208183030381529060405280519060200120905092915050565b606a5460408051633644e51560e01b815290516000926001600160a01b031691633644e5159160048083019260209291908290030181865afa1580156108f7573d6000803e3d6000fd5b505050506040513d601f19601f8201168201806040525081019061091b9190612f32565b60775484846040516020016108529392919061318a565b6066602052600090815260409020805461094b906131a3565b80601f0160208091040260200160405190810160405280929190818152602001828054610977906131a3565b80156109c45780601f10610999576101008083540402835291602001916109c4565b820191906000526020600020905b8154815290600101906020018083116109a757829003601f168201915b505050505081565b606781815481106109dc57600080fd5b90600052602060002090600202016000915090508060000180546109ff906131a3565b80601f0160208091040260200160405190810160405280929190818152602001828054610a2b906131a3565b8015610a785780601f10610a4d57610100808354040283529160200191610a78565b820191906000526020600020905b815481529060010190602001808311610a5b57829003601f168201915b5050505050908060010154905082565b8251845114610acc5760405162461bcd60e51b815260206004820152601060248201526f6d757374206265207468652073616d6560801b6044820152606401610644565b606e548214610aed5760405162461bcd60e51b8152600401610644906131de565b6060610afa836001611bf9565b606e556033546001600160a01b03163314610b96576000610b1c8686866111f0565b606a54604051622f5df560e01b81529192506001600160a01b031690622f5df590610b4d9084908790600401613014565b600060405180830381865afa158015610b6a573d6000803e3d6000fd5b505050506040513d6000823e601f3d908101601f19168201604052610b929190810190613035565b9150505b60005b8551811015610c3457848181518110610bb457610bb46130c5565b602002602001015160696000888481518110610bd257610bd26130c5565b602002602001015181526020019081526020016000206000820151816000019080519060200190610c049291906123d4565b506020828101518051610c1d92600185019201906123d4565b509050508080610c2c906130f1565b915050610b99565b507f1a1edd40bef030c5b4c9cb43fe0da8011dda52b6bbcb1ea80aac97d4810bda18858583604051610c6893929190613283565b60405180910390a15050505050565b606d548214610cd25760405162461bcd60e51b815260206004820152602160248201527f6368616e67655461707053746f7265486f7374206e6f6e636520696e76616c696044820152601960fa1b6064820152608401610644565b6060610cdf836001611bf9565b606d556033546001600160a01b03163314610d7b576000610d018686866119fe565b606a54604051622f5df560e01b81529192506001600160a01b031690622f5df590610d329084908790600401613014565b600060405180830381865afa158015610d4f573d6000803e3d6000fd5b505050506040513d6000823e601f3d908101601f19168201604052610d779190810190613035565b9150505b60005b8451811015610dc9576000610dab868381518110610d9e57610d9e6130c5565b6020026020010151611d9e565b9050610db681611e90565b5080610dc1816130f1565b915050610d7e565b5060005b8551811015610e0a57610df8868281518110610deb57610deb6130c5565b6020026020010151611f7c565b80610e02816130f1565b915050610dcd565b507ff31fbf3d0029cb9049c110f5a7d6a88f19e9b8f4fe97bc8893f57fa7b22e26e2858583604051610c68939291906132c6565b60658181548110610e4e57600080fd5b6000918252602090912001546001600160a01b0316905081565b610e70611ff3565b610e7a600061204d565b565b8251845114610ec05760405162461bcd60e51b815260206004820152601060248201526f6d757374206265207468652073616d6560801b6044820152606401610644565b606b548214610ee15760405162461bcd60e51b8152600401610644906131de565b610eec826001611bf9565b606b556060610f036033546001600160a01b031690565b6001600160a01b0316336001600160a01b031614610fa2576000610f28868686610514565b606a54604051622f5df560e01b81529192506001600160a01b031690622f5df590610f599084908790600401613014565b600060405180830381865afa158015610f76573d6000803e3d6000fd5b505050506040513d6000823e601f3d908101601f19168201604052610f9e9190810190613035565b9150505b60005b8551811015610ffc57610fea868281518110610fc357610fc36130c5565b6020026020010151868381518110610fdd57610fdd6130c5565b602002602001015161209f565b80610ff4816130f1565b915050610fa5565b507f5e561b38634c307edf9bb4aabbe04cb249a3c7de1cd9a12941bb48d7bced603a858583604051610c68939291906132eb565b606a5460408051633644e51560e01b815290516000926001600160a01b031691633644e5159160048083019260209291908290030181865afa15801561107a573d6000803e3d6000fd5b505050506040513d601f19601f8201168201806040525081019061109e9190612f32565b6076548484604051602001610852939291906132fe565b60705482146110d65760405162461bcd60e51b8152600401610644906131de565b60606110e3836001611bf9565b6070556033546001600160a01b0316331461117e57600061110485856108ad565b606a54604051622f5df560e01b81529192506001600160a01b031690622f5df5906111359084908790600401613014565b600060405180830381865afa158015611152573d6000803e3d6000fd5b505050506040513d6000823e601f3d908101601f1916820160405261117a9190810190613035565b9150505b60005b84518110156111be576111ac85828151811061119f5761119f6130c5565b6020026020010151612131565b806111b6816130f1565b915050611181565b507f6ec984ab219be781e5b05a9f2697d1ef9837b9e523b273346c39e094e7ff45fd84826040516107bf929190613317565b606a5460408051633644e51560e01b815290516000926001600160a01b031691633644e5159160048083019260209291908290030181865afa15801561123a573d6000803e3d6000fd5b505050506040513d601f19601f8201168201806040525081019061125e9190612f32565b60755485858560405160200161059b949392919061332a565b606f5482146112c85760405162461bcd60e51b815260206004820152601960248201527f72656d6f76655461707073206e6f6e636520696e76616c6964000000000000006044820152606401610644565b60606112d5836001611bf9565b606f556033546001600160a01b031633146113705760006112f68585611030565b606a54604051622f5df560e01b81529192506001600160a01b031690622f5df5906113279084908790600401613014565b600060405180830381865afa158015611344573d6000803e3d6000fd5b505050506040513d6000823e601f3d908101601f1916820160405261136c9190810190613035565b9150505b60005b84518110156113dc5760696000868381518110611392576113926130c5565b60200260200101518152602001908152602001600020600080820160006113b9919061239a565b6113c760018301600061239a565b505080806113d4906130f1565b915050611373565b507f0a533475bfc29c76f2a341b82b4db440a558e142a1a4d159c7971609891c992484826040516107bf929190613355565b6068818154811061141e57600080fd5b90600052602060002001600091509050805461094b906131a3565b607154821461148a5760405162461bcd60e51b815260206004820152601b60248201527f72656d6f766549737375657273206e6f6e636520696e76616c696400000000006044820152606401610644565b611495826001611bf9565b60715560606114ac6033546001600160a01b031690565b6001600160a01b0316336001600160a01b03161461154a5760006114d085856116f6565b606a54604051622f5df560e01b81529192506001600160a01b031690622f5df5906115019084908790600401613014565b600060405180830381865afa15801561151e573d6000803e3d6000fd5b505050506040513d6000823e601f3d908101601f191682016040526115469190810190613035565b9150505b60005b845181101561159857600061157a86838151811061156d5761156d6130c5565b6020026020010151612190565b90506115858161227b565b5080611590816130f1565b91505061154d565b507f829a433706c3b4ec07adeced1909e5560dbbadb82ae8c8f78241652a6b4a845d84826040516107bf929190613317565b6069602052600090815260409020805481906115e5906131a3565b80601f0160208091040260200160405190810160405280929190818152602001828054611611906131a3565b801561165e5780601f106116335761010080835404028352916020019161165e565b820191906000526020600020905b81548152906001019060200180831161164157829003601f168201915b505050505090806001018054611673906131a3565b80601f016020809104026020016040519081016040528092919081815260200182805461169f906131a3565b80156116ec5780601f106116c1576101008083540402835291602001916116ec565b820191906000526020600020905b8154815290600101906020018083116116cf57829003601f168201915b5050505050905082565b606a5460408051633644e51560e01b815290516000926001600160a01b031691633644e5159160048083019260209291908290030181865afa158015611740573d6000803e3d6000fd5b505050506040513d601f19601f820116820180604052508101906117649190612f32565b60785484846040516020016108529392919061318a565b60008160405160200161178e9190613368565b60405160208183030381529060405280519060200120836040516020016117b59190613368565b604051602081830303815290604052805190602001201490505b92915050565b600054610100900460ff16158080156117f55750600054600160ff909116105b8061180f5750303b15801561180f575060005460ff166001145b6118725760405162461bcd60e51b815260206004820152602e60248201527f496e697469616c697a61626c653a20636f6e747261637420697320616c72656160448201526d191e481a5b9a5d1a585b1a5e995960921b6064820152608401610644565b6000805460ff191660011790558015611895576000805461ff0019166101001790555b606a80546001600160a01b0319166001600160a01b0384161790557fc6e852a10ea8e88d9e1481690b29216061bd56ad5f92ebf9c1954e9843c18bbc6072557fab6d1e9185ecacfb5a558df10e4e5a983f250299d7d575c8aa56e9eef15f4cbb6073557f3b8a9611ef342fdc7d89f113d96705b59f4353ced504f98d3ab1e633159ce16b6074557f1cc318845a4ff9ddf8eadc842beed56265357f58a32c17aebde0a7ab4a17213d6075557ffa4296c69ff6862ceef4adaf8f9d4d4caa7aa1e1f7d74ae6d7e41698d410a39e6076557f660e11f397a812777f0dab61abd7eda48116358a945a33cdd7d5a62eba2e2b566077557f1d186fd6591512a84d765285734dd6a9fc1c8130996dc8b333bd22c29fd0f28e6078556119b4612340565b80156119fa576000805461ff0019169055604051600181527f7f26b83ff96e1f2b6a682f133852f6798a09c465da95921460cefb38474024989060200160405180910390a15b5050565b606a5460408051633644e51560e01b815290516000926001600160a01b031691633644e5159160048083019260209291908290030181865afa158015611a48573d6000803e3d6000fd5b505050506040513d601f19601f82011682018060405250810190611a6c9190612f32565b60745485858560405160200161059b9493929190613384565b611a8d611ff3565b6001600160a01b038116611af25760405162461bcd60e51b815260206004820152602660248201527f4f776e61626c653a206e6577206f776e657220697320746865207a65726f206160448201526564647265737360d01b6064820152608401610644565b611afb8161204d565b50565b60606067805480602002602001604051908101604052809291908181526020016000905b82821015611bf05783829060005260206000209060020201604051806040016040529081600082018054611b55906131a3565b80601f0160208091040260200160405190810160405280929190818152602001828054611b81906131a3565b8015611bce5780601f10611ba357610100808354040283529160200191611bce565b820191906000526020600020905b815481529060010190602001808311611bb157829003601f168201915b5050505050815260200160018201548152505081526020019060010190611b22565b50505050905090565b6000611c05828461339d565b9050828110156117cf5760405162461bcd60e51b815260206004820152601960248201527f4f766572666c6f7720647572696e67206164646974696f6e2e000000000000006044820152606401610644565b6000805b606554811015611cb557826001600160a01b031660658281548110611c8257611c826130c5565b6000918252602090912001546001600160a01b03161415611ca35792915050565b80611cad816130f1565b915050611c5b565b5050606554919050565b6065548110611ccb5750565b805b606554611cdc906001906133b5565b811015611d67576065611cf082600161339d565b81548110611d0057611d006130c5565b600091825260209091200154606580546001600160a01b039092169183908110611d2c57611d2c6130c5565b600091825260209091200180546001600160a01b0319166001600160a01b039290921691909117905580611d5f816130f1565b915050611ccd565b506065805480611d7957611d796133cc565b600082815260209020810160001990810180546001600160a01b031916905501905550565b6000805b606754811015611e8657600060678281548110611dc157611dc16130c5565b90600052602060002090600202016000018054611ddd906131a3565b80601f0160208091040260200160405190810160405280929190818152602001828054611e09906131a3565b8015611e565780601f10611e2b57610100808354040283529160200191611e56565b820191906000526020600020905b815481529060010190602001808311611e3957829003601f168201915b50505050509050611e67818561177b565b15611e73575092915050565b5080611e7e816130f1565b915050611da2565b5050606754919050565b6067548110611e9c5750565b805b606754611ead906001906133b5565b811015611f3b576067611ec182600161339d565b81548110611ed157611ed16130c5565b906000526020600020906002020160678281548110611ef257611ef26130c5565b90600052602060002090600202016000820181600001908054611f14906131a3565b611f1f929190612458565b5060019182015491015580611f33816130f1565b915050611e9e565b506067805480611f4d57611f4d6133cc565b60008281526020812060001990920191600283020190611f6d828261239a565b60018201600090555050905550565b6000611f8b8260000151611d9e565b60675490915081106119fa57606780546001810182556000919091528251805184926002027f9787eeb91fe3101235e4a76063c7023ecb40f923f97916639c598592fa30d6ae0191611fe2918391602001906123d4565b506020820151816001015550505050565b6033546001600160a01b03163314610e7a5760405162461bcd60e51b815260206004820181905260248201527f4f776e61626c653a2063616c6c6572206973206e6f7420746865206f776e65726044820152606401610644565b603380546001600160a01b038381166001600160a01b0319831681179093556040519116919082907f8be0079c531659141344cd1fd0a4f28419497f9722a3daafe3b4186f6b6457e090600090a35050565b60006120aa83611c57565b606554909150811061210257606580546001810182556000919091527f8ff97419363ffd7000167f130ef7168fbea05faf9251824ca5043f113cc6a7c70180546001600160a01b0319166001600160a01b0385161790555b6001600160a01b0383166000908152606660209081526040909120835161212b928501906123d4565b50505050565b600061213c82612190565b60655490915081106119fa5760688054600181018255600091909152825161218b917fa2153420d844928b4421650203c77babc8b33d7f2e7b450e2966db0c22097753019060208501906123d4565b505050565b6000805b606854811015612271576000606882815481106121b3576121b36130c5565b9060005260206000200180546121c8906131a3565b80601f01602080910402602001604051908101604052809291908181526020018280546121f4906131a3565b80156122415780601f1061221657610100808354040283529160200191612241565b820191906000526020600020905b81548152906001019060200180831161222457829003601f168201915b50505050509050612252818561177b565b1561225e575092915050565b5080612269816130f1565b915050612194565b5050606854919050565b60685481106122875750565b805b606854612298906001906133b5565b81101561230d5760686122ac82600161339d565b815481106122bc576122bc6130c5565b90600052602060002001606882815481106122d9576122d96130c5565b906000526020600020019080546122ef906131a3565b6122fa929190612458565b5080612305816130f1565b915050612289565b50606880548061231f5761231f6133cc565b60019003818190600052602060002001600061233b919061239a565b905550565b600054610100900460ff166123675760405162461bcd60e51b8152600401610644906133e2565b610e7a600054610100900460ff166123915760405162461bcd60e51b8152600401610644906133e2565b610e7a3361204d565b5080546123a6906131a3565b6000825580601f106123b6575050565b601f016020900490600052602060002090810190611afb91906124d3565b8280546123e0906131a3565b90600052602060002090601f0160209004810192826124025760008555612448565b82601f1061241b57805160ff1916838001178555612448565b82800160010185558215612448579182015b8281111561244857825182559160200191906001019061242d565b506124549291506124d3565b5090565b828054612464906131a3565b90600052602060002090601f0160209004810192826124865760008555612448565b82601f106124975780548555612448565b8280016001018555821561244857600052602060002091601f016020900482015b828111156124485782548255916001019190600101906124b8565b5b8082111561245457600081556001016124d4565b634e487b7160e01b600052604160045260246000fd5b604080519081016001600160401b0381118282101715612520576125206124e8565b60405290565b604051601f8201601f191681016001600160401b038111828210171561254e5761254e6124e8565b604052919050565b60006001600160401b0382111561256f5761256f6124e8565b5060051b60200190565b6001600160a01b0381168114611afb57600080fd5b600082601f83011261259f57600080fd5b813560206125b46125af83612556565b612526565b82815260059290921b840181019181810190868411156125d357600080fd5b8286015b848110156125f75780356125ea81612579565b83529183019183016125d7565b509695505050505050565b600082601f83011261261357600080fd5b81356001600160401b0381111561262c5761262c6124e8565b61263f601f8201601f1916602001612526565b81815284602083860101111561265457600080fd5b816020850160208301376000918101602001919091529392505050565b600082601f83011261268257600080fd5b813560206126926125af83612556565b82815260059290921b840181019181810190868411156126b157600080fd5b8286015b848110156125f75780356001600160401b038111156126d45760008081fd5b6126e28986838b0101612602565b8452509183019183016126b5565b60008060006060848603121561270557600080fd5b83356001600160401b038082111561271c57600080fd5b6127288783880161258e565b9450602086013591508082111561273e57600080fd5b5061274b86828701612671565b925050604084013590509250925092565b60008060006060848603121561277157600080fd5b83356001600160401b038082111561278857600080fd5b6127948783880161258e565b94506020860135935060408601359150808211156127b157600080fd5b506127be86828701612602565b9150509250925092565b600080604083850312156127db57600080fd5b82356001600160401b038111156127f157600080fd5b6127fd8582860161258e565b95602094909401359450505050565b600082601f83011261281d57600080fd5b8135602061282d6125af83612556565b82815260059290921b8401810191818101908684111561284c57600080fd5b8286015b848110156125f75780356001600160401b0381111561286f5760008081fd5b61287d8986838b0101612602565b845250918301918301612850565b6000806040838503121561289e57600080fd5b82356001600160401b038111156128b457600080fd5b6127fd8582860161280c565b6000602082840312156128d257600080fd5b81356128dd81612579565b9392505050565b60005b838110156128ff5781810151838201526020016128e7565b8381111561212b5750506000910152565b600081518084526129288160208601602086016128e4565b601f01601f19169290920160200192915050565b6020815260006128dd6020830184612910565b60006020828403121561296157600080fd5b5035919050565b60408152600061297b6040830185612910565b90508260208301529392505050565b600082601f83011261299b57600080fd5b813560206129ab6125af83612556565b82815260059290921b840181019181810190868411156129ca57600080fd5b8286015b848110156125f757803583529183019183016129ce565b600082601f8301126129f657600080fd5b81356020612a066125af83612556565b82815260059290921b84018101918181019086841115612a2557600080fd5b8286015b848110156125f75780356001600160401b0380821115612a495760008081fd5b908801906040828b03601f1901811315612a635760008081fd5b612a6b6124fe565b8784013583811115612a7d5760008081fd5b612a8b8d8a83880101612602565b825250908301359082821115612aa15760008081fd5b612aaf8c8984870101612602565b818901528652505050918301918301612a29565b60008060008060808587031215612ad957600080fd5b84356001600160401b0380821115612af057600080fd5b612afc8883890161298a565b95506020870135915080821115612b1257600080fd5b612b1e888389016129e5565b9450604087013593506060870135915080821115612b3b57600080fd5b50612b4887828801612602565b91505092959194509250565b600082601f830112612b6557600080fd5b81356020612b756125af83612556565b82815260059290921b84018101918181019086841115612b9457600080fd5b8286015b848110156125f75780356001600160401b0380821115612bb85760008081fd5b908801906040828b03601f1901811315612bd25760008081fd5b612bda6124fe565b8784013583811115612bec5760008081fd5b612bfa8d8a83880101612602565b82525092013586830152508352918301918301612b98565b60008060008060808587031215612c2857600080fd5b84356001600160401b0380821115612c3f57600080fd5b612c4b88838901612b54565b95506020870135915080821115612c6157600080fd5b612b1e8883890161280c565b60008060008060808587031215612c8357600080fd5b84356001600160401b0380821115612c9a57600080fd5b612ca68883890161258e565b95506020870135915080821115612cbc57600080fd5b612b1e88838901612671565b60008060408385031215612cdb57600080fd5b82356001600160401b03811115612cf157600080fd5b6127fd8582860161298a565b600080600060608486031215612d1257600080fd5b83356001600160401b0380821115612d2957600080fd5b6127948783880161280c565b600080600060608486031215612d4a57600080fd5b83356001600160401b0380821115612d6157600080fd5b612d6d8783880161298a565b94506020860135915080821115612d8357600080fd5b5061274b868287016129e5565b600080600060608486031215612da557600080fd5b83356001600160401b0380821115612dbc57600080fd5b6127948783880161298a565b604081526000612ddb6040830185612910565b8281036020840152612ded8185612910565b95945050505050565b60008060408385031215612e0957600080fd5b82356001600160401b0380821115612e2057600080fd5b612e2c86838701612602565b93506020850135915080821115612e4257600080fd5b50612e4f85828601612602565b9150509250929050565b600080600060608486031215612e6e57600080fd5b83356001600160401b0380821115612e8557600080fd5b612e9187838801612b54565b94506020860135915080821115612ea757600080fd5b5061274b8682870161280c565b600081518084526020808501808196508360051b8101915082860160005b85811015612f12578284038952815160408151818752612ef482880182612910565b92880151968801969096525098850198935090840190600101612ed2565b5091979650505050505050565b6020815260006128dd6020830184612eb4565b600060208284031215612f4457600080fd5b5051919050565b600081518084526020808501945080840160005b83811015612f845781516001600160a01b031687529582019590820190600101612f5f565b509495945050505050565b600081518084526020808501808196508360051b8101915082860160005b85811015612f12578284038952612fc5848351612910565b98850198935090840190600101612fad565b848152608060208201526000612ff06080830186612f4b565b82810360408401526130028186612f8f565b91505082606083015295945050505050565b82815260406020820152600061302d6040830184612910565b949350505050565b6000602080838503121561304857600080fd5b82516001600160401b0381111561305e57600080fd5b8301601f8101851361306f57600080fd5b805161307d6125af82612556565b81815260059190911b8201830190838101908783111561309c57600080fd5b928401925b828410156130ba578351825292840192908401906130a1565b979650505050505050565b634e487b7160e01b600052603260045260246000fd5b634e487b7160e01b600052601160045260246000fd5b6000600019821415613105576131056130db565b5060010190565b600081518084526020808501945080840160005b83811015612f8457815187529582019590820190600101613120565b60408152600061314f6040830185612f4b565b8281036020840152612ded818561310c565b83815260606020820152600061317a6060830185612f4b565b9050826040830152949350505050565b83815260606020820152600061317a6060830185612f8f565b600181811c908216806131b757607f821691505b602082108114156131d857634e487b7160e01b600052602260045260246000fd5b50919050565b6020808252601d908201527f726567697374657249737375657273206e6f6e636520696e76616c6964000000604082015260600190565b600081518084526020808501808196508360051b8101915082860160005b85811015612f1257828403895281516040815181875261325582880182612910565b9150508682015191508581038787015261326f8183612910565b9a87019a9550505090840190600101613233565b606081526000613296606083018661310c565b82810360208401526132a88186613215565b905082810360408401526132bc818561310c565b9695505050505050565b6060815260006132d96060830186612eb4565b82810360208401526132a88186612f8f565b6060815260006132d96060830186612f4b565b83815260606020820152600061317a606083018561310c565b60408152600061314f6040830185612f8f565b848152608060208201526000613343608083018661310c565b82810360408401526130028186613215565b60408152600061314f604083018561310c565b6000825161337a8184602087016128e4565b9190910192915050565b848152608060208201526000612ff06080830186612eb4565b600082198211156133b0576133b06130db565b500190565b6000828210156133c7576133c76130db565b500390565b634e487b7160e01b600052603160045260246000fd5b6020808252602b908201527f496e697469616c697a61626c653a20636f6e7472616374206973206e6f74206960408201526a6e697469616c697a696e6760a81b60608201526080019056fea2646970667358221220474a98682190dbba707087ef955b0867ec1b79a121ab77d7fd2f25897ae8579764736f6c634300080b0033",
  "linkReferences": {},
  "deployedLinkReferences": {}
}